:100000000C945E000C9486000C9486000C94860080
:100010000C9486000C9486000C9486000C94860048
:100020000C9486000C9486000C9486000C94860038
:100030000C9486000C9486000C9486000C94860028
:100040000C9416060C9486000C94E4050C94BE05E2
:100050000C9486000C9486000C9486000C94860008
:100060000C9460060C948600000000080002010059
:100070000003040700000000000000000000000072
:10008000250028002B0000000000240027002A0083
:10009000040404040404040402020202020203032E
:1000A0000303030301020408102040800102040836
:1000B00010200102040810207B07C50A11241FBE6E
:1000C000CFEFD8E0DEBFCDBF22E0A0E3B1E001C0BA
:1000D0001D92A13BB207E1F711E0A0E0B1E0E8E238
:1000E000FBE102C005900D92A033B107D9F710E0F3
:1000F000CDE5D0E004C02197FE010E94750BCC3500
:10010000D107C9F70E94BF070C94870D0C9400001B
:1001100090E0FC01EC55FF4F249180579F4FFC016C
:100120008491882399F090E0880F991FFC01EA5789
:10013000FF4FA591B491FC01E458FF4F8591949134
:100140008FB7F894EC91E22BEC938FBF0895982F22
:100150002091F70181E0213208F043C08091D30162
:100160008111FCCF8091F60132E03093D30190935E
:10017000D2019FEF9093D1011092D0012093CF0133
:10018000A6EDB1E0EFEAF1E090E0291331C0109262
:10019000AE019091AE01880F892B8093AE018091C2
:1001A000AD01813049F51092AD018091AE0180938F
:1001B000BB008091BC0083FDF8CF85EC8093BC0030
:1001C0008091D3018230E1F38091D1018F3FB1F072
:1001D0008091D1018032A1F08091D101803391F0E2
:1001E00084E01092D5011092F7011092D401089585
:1001F0003D9131939F5FC9CF85EEE0CF80E0F1CF95
:1002000082E0EFCF83E0EDCFAF92BF92CF92DF924B
:10021000EF92FF920F931F93CF93DF936C017B01BB
:100220008B01040F151FEB015E01AE18BF08C0174C
:10023000D10759F06991D601ED91FC910190F081BF
:10024000E02DC6010995892B79F7C501DF91CF9182
:100250001F910F91FF90EF90DF90CF90BF90AF90E4
:100260000895FC01538D448D252F30E0842F90E0BC
:10027000821B930B541710F0CF96089501970895A1
:10028000FC01918D828D981761F0A28DAE0FBF2F6A
:10029000B11D5D968C91928D9F5F9F73928F90E0C0
:1002A00008958FEF9FEF08952FB7F8948091A901DB
:1002B0009091AA01A091AB01B091AC012FBF8093A6
:1002C000000290930102A0930202B093030288EF10
:1002D00091E00E94400197FF26C02FB7F8948091CB
:1002E000A9019091AA01A091AB01B091AC012FBFDF
:1002F000409100025091010260910202709103024C
:10030000841B950BA60BB70B4091FC015091FD018E
:100310006091FE017091FF0184179507A607B7074A
:10032000B0F28FEF9FEF0895FC01918D828D9817A9
:1003300031F0828DE80FF11D858D90E008958FEFEB
:100340009FEF0895FC01918D228D892F90E0805CB4
:100350009F4F821B91098F7399270895FC01A48DEB
:10036000A80FB92FB11DA35ABF4F2C91848D90E0D7
:1003700001968F739927848FA689B7892C93A089BA
:10038000B1898C91837080648C93938D848D981344
:1003900006C00288F389E02D80818F7D80830895D7
:1003A000EF92FF920F931F93CF93DF93EC0181E0C5
:1003B000888F9B8D8C8D98131AC0E889F98980816C
:1003C00085FF15C09FB7F894EE89FF896083E8899F
:1003D000F98980818370806480839FBF81E090E091
:1003E000DF91CF911F910F91FF90EF900895F62E1E
:1003F0000B8D10E00F5F1F4F0F731127E02E8C8DB8
:100400008E110CC00FB607FCFACFE889F9898081FC
:1004100085FFF5CFCE010E94AE01F1CFEB8DEC0F41
:10042000FD2FF11DE35AFF4FF0829FB7F8940B8F19
:10043000EA89FB8980818062CFCFCF93DF93EC0183
:10044000888D8823B9F0AA89BB89E889F9898C91BC
:1004500085FD03C0808186FD0DC00FB607FCF7CF78
:100460008C9185FFF2CF808185FFEDCFCE010E9478
:10047000AE01E9CFDF91CF91089588EF91E00E941E
:10048000A20121E0892B09F420E0822F089580E069
:1004900090E0892B29F00E943D0281110C9400000C
:1004A0000895FC01248135816217730720F480814F
:1004B0009181009729F41092780188E791E00895DE
:1004C000860F971F0895089590E0FC01E859FF4FAB
:1004D0002491FC01EC55FF4F3491FC01E057FF4F94
:1004E000E491EE23C9F0222339F0233001F1A8F47E
:1004F000213019F1223029F1F0E0EE0FFF1FE4580E
:10050000FF4FA591B4918FB7F894EC91611126C07B
:1005100030953E233C938FBF08952730A9F02830B3
:10052000C9F0243049F7809180008F7D03C080910D
:1005300080008F7780938000DFCF84B58F7784BD74
:10054000DBCF84B58F7DFBCF8091B0008F77809318
:10055000B000D2CF8091B0008F7DF9CF3E2BDACFA3
:100560003FB7F8948091740190917501A091760144
:10057000B091770126B5A89B05C02F3F19F00196D1
:10058000A11DB11D3FBFBA2FA92F982F8827BC01ED
:10059000CD01620F711D811D911D42E0660F771F15
:1005A000881F991F4A95D1F708958F929F92AF9215
:1005B000BF92CF92DF92EF92FF924B015C010E94BB
:1005C000B0026B017C010E94B0026C197D098E099A
:1005D0009F09683E734081059105A8F321E0821AC6
:1005E0009108A108B10888EEC80E83E0D81EE11C6E
:1005F000F11C81149104A104B10429F7FF90EF903C
:10060000DF90CF90BF90AF909F908F90089585ED31
:100610008093BC008091BC0084FDFCCF1092D3017C
:10062000089520915001260F3327331F21323105C1
:10063000ECF42091D301FC0190E080E0243069F0DB
:1006400082E00895A09150012191AC01405D5E4F80
:10065000A40FB52FB11D2C930196861798F38091A6
:100660005001680F6093500180E0089581E0089583
:100670000895E0917A0180917901E81730F4F0E073
:10068000E558FE4F808190E008958FEF9FEF089529
:1006900090917A01809179012FEF3FEF981748F4FC
:1006A000E92FF0E0E558FE4F208130E09F5F909306
:1006B0007A01C90108958091790190917A01891B8D
:1006C000990B0895CF92DF92EF92FF920F931F93B1
:1006D000CF93DF937C01CB018A012091D4012223A7
:1006E00089F0EB016B01C40ED51ECC15DD0569F058
:1006F0006991D701ED91FC910190F081E02DC70146
:100700000995F3CF642F0E941103C801DF91CF91A7
:100710001F910F91FF90EF90DF90CF900895CF93AE
:10072000DF931F92CDB7DEB769832091D4012223D6
:10073000F9F02091F701203258F021E030E0FC017F
:100740003383228390E080E00F90DF91CF91089572
:100750008091D501E82FF0E0EA52FE4F9981908315
:100760008F5F8093D5018093F70181E090E0ECCF1B
:1007700061E0CE0101960E941103F7CF682F85E951
:1007800092E00C948F0390E080E00895CF93DF9384
:10079000C82F807F8BB961E08BE00E94640260E02B
:1007A0008CE00E94640261E08DE00E9464026AE0D5
:1007B00070E080E090E00E94D50260E08DE00E9451
:1007C00064026AE070E080E090E00E94D50280E17F
:1007D000C802E0011124CBB961E08BE00E94640201
:1007E00060E08CE00E94640261E08DE00E9464029F
:1007F0006AE070E080E090E00E94D50260E08DE069
:100800000E9464026AE070E080E090E0DF91CF91A6
:100810000C94D502CF93DF93C82F807F8BB960E013
:100820008BE00E94640260E08CE00E94640261E060
:100830008DE00E9464026AE070E080E090E00E9437
:10084000D50260E08DE00E9464026AE070E080E022
:1008500090E00E94D50280E1C802E0011124CBB9EA
:1008600060E08BE00E94640260E08CE00E94640221
:1008700061E08DE00E9464026AE070E080E090E058
:100880000E94D50260E08DE00E9464026AE070E0A0
:1008900080E090E0DF91CF910C94D502FC01808143
:1008A0009181009711F00C94CD0A60E070E0CB01CB
:1008B00008950F931F93CF93DF938C01EB01FC01FD
:1008C000808191810097E1F06881798161157105DE
:1008D000A9F0428153812C813D814217530770F06A
:1008E0000E94660D8C819D81F801958384831D8211
:1008F0001C82DF91CF911F910F9108950E94170CD8
:1009000088819981F801918380838A819B81938377
:1009100082838C819D8195838483198218821B82B6
:100920001A82E5CFCF93DF93EC01888199810097FC
:1009300011F00E94170C198218821D821C821B82E2
:100940001A82DF91CF910895FC01808191810C94EE
:10095000170C0F931F93CF93DF93EC01888199813C
:10096000009759F02A813B812617370730F081E044
:10097000DF91CF911F910F9108958B016F5F7F4F92
:100980000E94A00C009759F0998388831B830A83E7
:100990002C813D81232B59F7FC011082E8CF80E0A8
:1009A000E7CFEF92FF920F931F93CF93DF936115E1
:1009B000710541F480E0DF91CF911F910F91FF907D
:1009C000EF90089541155105B1F07B01EC010C81C8
:1009D0001D81040F151FB8010E94A904882351F33B
:1009E000288139818C819D81B701820F931F0E94DC
:1009F000660D1D830C8381E0DECFCF93DF93EC0186
:100A0000FB0101900020E9F73197AF01461B570B1E
:100A10000E94D104811103C0CE010E949204CE0134
:100A2000DF91CF910895CF93DF93EC01FB014481D7
:100A30005581608171810E94D104811103C0CE0172
:100A40000E949204CE01DF91CF910895EF92FF9220
:100A50000F931F93CF93DF93EC017B018A01BA01BF
:100A60000E94A90481110BC0CE010E949204CE0104
:100A7000DF91CF911F910F91FF90EF9008951D830B
:100A80000C83B701888199810E94660DF0CFEF92A7
:100A9000FF920F931F93CF93DF93CDB7DEB762978B
:100AA0000FB6F894DEBF0FBECDBF8C01CB01F801AD
:100AB0001182108213821282158214824AE09E01F2
:100AC0002F5F3F4F7901B9010E94F40AF7010190AD
:100AD0000020E9F73197AF014E195F09B701C8014E
:100AE0000E94260562960FB6F894DEBF0FBECDBFFA
:100AF000DF91CF911F910F91FF90EF900895CF93C9
:100B0000DF93EC016115710571F0FB01019000208C
:100B1000E9F73197AF01461B570B0E942605CE011E
:100B2000DF91CF9108950E949204F9CFCF93DF9384
:100B3000EC01FB018617970749F06081718161150F
:100B4000710541F0448155810E942605CE01DF9157
:100B5000CF9108950E949204F9CFFC011182108276
:100B60001382128215821482FB0101900020E9F7A2
:100B70003197AF01461B570B0C9426051F920F921D
:100B80000FB60F9211242F933F934F935F936F9360
:100B90007F938F939F93AF93BF93EF93FF9388EFD0
:100BA00091E00E94AE01FF91EF91BF91AF919F91B3
:100BB0008F917F916F915F914F913F912F910F9006
:100BC0000FBE0F901F9018951F920F920FB60F92A5
:100BD00011242F938F939F93EF93FF93E09108023B
:100BE000F09109028081E0910E02F0910F0282FDE6
:100BF0001BC09081809111028F5F8F732091120230
:100C0000821741F0E0911102F0E0E850FE4F958F1D
:100C100080931102FF91EF919F918F912F910F90EF
:100C20000FBE0F901F9018958081F4CF1F920F92E6
:100C30000FB60F9211242F933F938F939F93AF93EF
:100C4000BF938091A9019091AA01A091AB01B091AD
:100C5000AC013091730123E0230F2D3758F5019635
:100C6000A11DB11D209373018093A9019093AA0146
:100C7000A093AB01B093AC01809174019091750188
:100C8000A0917601B09177010196A11DB11D8093CD
:100C9000740190937501A0937601B0937701BF9191
:100CA000AF919F918F913F912F910F900FBE0F9019
:100CB0001F90189526E8230F0296A11DB11DD2CFD3
:100CC0001F920F920FB60F9211242F933F934F93C1
:100CD0005F936F937F938F939F93AF93BF93EF93A4
:100CE000FF938091B900887F803609F44AC0F0F5FF
:100CF000883209F4A5C018F5803109F499C0B8F418
:100D0000882309F4F5C0883009F492C0FF91EF916F
:100D1000BF91AF919F918F917F916F915F914F9113
:100D20003F912F910F900FBE0F901F901895883113
:100D300009F486C0803251F78093D10114C0803409
:100D400009F49BC040F48033B9F38833F9F68093FB
:100D5000D10185ECAEC0803509F483C0883509F433
:100D600094C0883499F60E940703D0CF883909F4DB
:100D70008AC038F5883729F050F4883611F080376A
:100D800029F683E08093D3011092720155C0883810
:100D900009F479C0803919F0803809F0B7CF809113
:100DA0007201803208F06FC0E091720181E08E0F15
:100DB000809372018091BB00F0E0EE5AFE4F808379
:100DC0003BC0803B39F0D0F4803A09F477C0883AD0
:100DD00009F09CCF84E08093D301109251011092CE
:100DE0005001F0E0E0E009958091500181110FC0C1
:100DF00081E0809350011092300109C0803C09F4D9
:100E0000A8CF883C09F4A5CF883B09F07FCFE091BB
:100E1000510181E08E0F80935101F0E0E05DFE4FC3
:100E200080818093BB00909151018091500129C035
:100E30008091AE018093BB0085EC8093BC0066CFAF
:100E40009091D0018091CF01981758F5E091D00191
:100E500081E08E0F8093D001F0E0E155FE4F80815C
:100E6000E9CFE091D00181E08E0F8093D001809195
:100E7000BB00F0E0E155FE4F80839091D00180915E
:100E8000CF019817C8F285E8D8CFE091D00181E072
:100E90008E0F8093D0018091BB00F0E0E155FE4FB2
:100EA00080838091D20181115ECF81E08093AD017A
:100EB00084EA8093BC001092D30128CF85EC809304
:100EC000BC001092D30180917201803230F4E09125
:100ED0007201F0E0EE5AFE4F10826091720170E0F4
:100EE00082E591E0F0E0E0E00995109272010ECF0A
:100EF0001092D10138CFE8EFF1E01382128288EE30
:100F000093E0A0E0B0E084839583A683B7832AE0D2
:100F100031E03183208325EC30E03587248724ECD1
:100F200030E03787268720EC30E0318B208B21ECB6
:100F300030E0338B228B22EC30E0358B248B26EC97
:100F400030E0378B268B118E128E138E148EE5E9CE
:100F5000F2E01382128284839583A683B7838CE1A7
:100F600091E0918380836BE271E087EA92E00E94D6
:100F7000AD056BE271E081EA92E00C94AD05CF9390
:100F8000DF93CDB7DEB768970FB6F894DEBF0FBE1C
:100F9000CDBF789484B5826084BD84B5816084BD02
:100FA00085B5826085BD85B5816085BD80916E0007
:100FB000816080936E001092810080918100826038
:100FC0008093810080918100816080938100809175
:100FD00080008160809380008091B1008460809364
:100FE000B1008091B00081608093B00080917A0060
:100FF000846080937A0080917A00826080937A0086
:1010000080917A00816080937A0080917A00806874
:1010100080937A001092C1008FEF8AB98BE00E9412
:1010200088008CE00E9488008DE00E948800772470
:10103000739458E6252E65EE362E75EC472EE0E0CB
:101040008E2EE0E09E2E55245A9446E0642E6BE2EC
:1010500071E0CE010D960E94AD050E94540197FDEE
:101060000FC08A30910561F089831A8241E050E017
:10107000BE016F5F7F4FCE010D960E94D104EDCF70
:101080006BE271E0CE0107960E94AD0537E0A32E1A
:10109000B12C6AE271E0CE0101960E94AD0589890A
:1010A0009A89892B61F0CD84DE8469817A81C601B9
:1010B0000E946D0D8C010C191D09892B11F40FEF85
:1010C0001FEFCE0101960E94A4046BE271E0CE01F5
:1010D00001960E94AD0589899A890097B9F0780137
:1010E0008017910708F47C01ED85FE85EE0DFF1D4C
:1010F000D08010826D857E85CE0101960E947F058D
:101100008D859E85E80EF91EF701D082BE016F5FC6
:101110007F4FCE0107960E945904CE0101960E948E
:10112000A404C988DA887801FFEFEF1AFF0ACE1409
:10113000DF0428F49E2D8F2D7601C92ED82E6BE268
:1011400071E0CE0101960E94AD0509891A89E01669
:10115000F106C0F4C016D10608F48601ED85FE85BF
:10116000E00FF11FD08010826D857E856E0D7F1D92
:10117000CE0101960E947F058D859E85080F191F5F
:10118000F801D082BE016F5F7F4FCE010D960E94A5
:101190005904CE0101960E94A404F1E0AF1AB108EF
:1011A00009F077CF7092D4012092F6011092D50108
:1011B0001092F70160E085E992E00E948F0390E0D1
:1011C00080E00E94BE0380E290E00E94BE0386E1C0
:1011D00090E00E94BE0387E090E00E94BE0386E29A
:1011E00090E00E94BE0382E190E00E94BE0380E294
:1011F00090E00E94BE0381E00E94A700CE01079606
:101200000E94A404CE010D960E94A4047092D40101
:101210001092D5011092F70160E085E992E00E94FA
:101220008F0381E00E94A7008091D3018111FCCF40
:101230007092D3017092D2015092D1011092D001DC
:101240006092CF017092AE018091AE01806D80936B
:10125000AE018091AD01813009F05AC11092AD010B
:101260008091AE018093BB008091BC0083FDF8CFDC
:101270004092BC008091D3018130E1F38091D00194
:1012800097E0873010F49091D001AFEAB1E0EBE73E
:10129000F1E080E089133FC110927A0180937901D7
:1012A00085E992E00E944803982F929597702AE072
:1012B000F22E8F70082F10E09F9D000D111D11243C
:1012C0001093A6010093A50185E992E00E944803CE
:1012D000282F22952F708F7090E02F9D800D911DEB
:1012E00011249093A4018093A30185E992E00E94C8
:1012F0004803282F229523708F7090E02F9D800D3A
:10130000911D11249093A2018093A10185E992E09F
:101310000E94480385E992E00E944803282F229505
:101320002F708F7090E02F9D800D911D1124909350
:10133000A00180939F0185E992E00E944803282F35
:1013400022952F708F7090E02F9D800D911D11249C
:1013500090939E0180939D0185E992E00E9448034D
:10136000282F22952F708F7090E02F9D800D911D5A
:1013700011248053984F90939C0180939B01B80156
:10138000CE0101960E9447056091A3017091A401CE
:10139000CE0107960E9447056091A1017091A201BC
:1013A000CE0143960E9447051E861D86188A1F8619
:1013B0001A8A198ABE016D5E7F4FCE010D960E947A
:1013C00096056CE271E0CE010D960E94FD04BE010F
:1013D000695F7F4F0E9413056CE271E00E94FD047B
:1013E000BE016F5F7F4F0E941305BC0187EA92E048
:1013F0000E949605CE010D960E94A404CE0143964C
:101400000E94A404CE0107960E94A404CE01019676
:101410000E94A40460919B0170919C01CE010196F1
:101420000E94470560919D0170919E01CE01079633
:101430000E94470560919F017091A001CE014396E3
:101440000E9447051E861D86188A1F861A8A198AD9
:10145000BE016D5E7F4FCE010D960E9496056EE235
:1014600071E0CE010D960E94FD04BE01695F7F4FC1
:101470000E9413056EE271E00E94FD04BE016F5FE1
:101480007F4F0E941305BC0181EA92E00E949605FD
:10149000CE010D960E94A404CE0143960E94A4049E
:1014A000CE0107960E94A404CE0101960E94A404D6
:1014B00082E00E940A0488E20E940A048EE00E94F0
:1014C0000A0481E00E940A0480E80E940A04109243
:1014D000A8011092A7010091A7011091A801B801DD
:1014E00087EA92E00E945102FC0180818823B9F0D2
:1014F000B80187EA92E00E945102FC0180810E94BB
:10150000C6030F5F1F4F1093A8010093A701E3CFFD
:101510003092BC00AFCE2D9121938F5FBBCE80EC7B
:101520000E940A041092A8011092A7010091A7013D
:101530001091A801B80181EA92E00E945102FC01D9
:101540008081882381F0B80181EA92E00E945102F3
:10155000FC0180810E94C6030F5F1F4F1093A801FA
:101560000093A701E3CF68EE73E080E090E00E9473
:10157000D5028114910409F46ACD0E943D028823AA
:1015800009F461CD0E9400005ECD81EA92E00E94E4
:10159000A40487EA92E00C94A4041F93FC01992709
:1015A0008827BC01E89411911032E9F3193010F04A
:1015B0001E30C8F31B3251F01D3249F4689406C046
:1015C0000E94FF0A610F711D811D911D1191105321
:1015D0001A30B0F33EF490958095709561957F4FE9
:1015E0008F4F9F4F1F910895BB274A3031F49923A5
:1015F00022F4BDE2909581959F4F0C94150B592FC5
:10160000482F372F262F660F771F881F991F660FC9
:10161000771F881F991F620F731F841F951F660F06
:10162000771F881F991F0895BB27FB015527AA27FD
:10163000880F991FAA1FA41710F0A41B839550515F
:10164000B9F7A05DAA3308F0A95DA193009779F7D7
:10165000B111B1931192CB010C942E0BDC01FC0162
:10166000672F71917723E1F7329704C07C916D93D6
:1016700070836291AE17BF07C8F308952F923F920F
:101680004F925F926F927F928F929F92AF92BF9292
:10169000CF92DF92EF92FF920F931F93CF93DF933E
:1016A000CDB7DEB7CA1BDB0B0FB6F894DEBF0FBE9B
:1016B000CDBF09942A88398848885F846E847D84E8
:1016C0008C849B84AA84B984C884DF80EE80FD80EA
:1016D0000C811B81AA81B981CE0FD11D0FB6F89460
:1016E000DEBF0FBECDBFED010895EE0FFF1F0590C9
:1016F000F491E02D09940F931F93CF93DF938230E1
:10170000910510F482E090E0E091AF02F091B00218
:1017100030E020E0B0E0A0E0309799F421153105E9
:1017200009F44AC0281B390B24303105D8F58A81C9
:101730009B816115710589F1FB0193838283FE0111
:1017400011C0408151810281138148175907E0F08F
:101750004817590799F4109761F012960C93129755
:1017600013961C933296CF01DF91CF911F910F9169
:1017700008950093AF021093B002F4CF2115310504
:1017800051F04217530738F0A901DB019A01BD015E
:10179000DF01F801C1CFEF01F9CF9093B002809340
:1017A000AF02CDCFFE01E20FF31F81939193225040
:1017B000310939832883D7CF2091AD023091AE0211
:1017C000232B41F420910201309103013093AE02AA
:1017D0002093AD02209100013091010121153105C6
:1017E00041F42DB73EB74091040150910501241BEF
:1017F000350BE091AD02F091AE02E217F307A0F4D1
:101800002E1B3F0B2817390778F0AC014E5F5F4F56
:101810002417350748F04E0F5F1F5093AE024093D8
:10182000AD02819391939FCFF0E0E0E09CCFCF9306
:10183000DF930097E9F0FC01329713821282A091A6
:10184000AF02B091B002ED0130E020E01097A1F4BA
:1018500020813181820F931F2091AD023091AE0221
:101860002817390709F061C0F093AE02E093AD028A
:10187000DF91CF910895EA01CE17DF07E8F54A819D
:101880005B819E0141155105B1F7E901FB83EA83B4
:1018900049915991C40FD51FEC17FD0761F4808160
:1018A00091810296840F951FE90199838883828133
:1018B00093819B838A83F0E0E0E012968D919C9166
:1018C00013970097B9F52D913C911197CD01029690
:1018D000820F931F2091AD023091AE022817390775
:1018E00039F6309751F51092B0021092AF02B093D2
:1018F000AE02A093AD02BCCFD383C283408151819D
:10190000840F951FC817D90761F44E5F5F4F888118
:101910009981480F591F518340838A819B8193830A
:1019200082832115310509F0B0CFF093B002E09326
:10193000AF029ECFFD01DC01C0CF13821282D7CF50
:10194000B0E0A0E0E6EAFCE00C94400B8C010097CC
:1019500051F4CB010E947B0B8C01C801CDB7DEB7DF
:10196000E0E10C945C0BFC01E60FF71F9C01225098
:101970003109E217F30708F49DC0D901CD91DC913C
:101980001197C617D70798F0C530D10530F3CE01AF
:1019900004978617970708F3C61BD70B2297C193A6
:1019A000D1936D937C93CF010E94170CD6CF5B012E
:1019B000AC1ABD0A4C018C0E9D1EA091AF02B091D5
:1019C000B002512C412CF12CE12C109731F5809173
:1019D000AD029091AE028815990509F05CC04616DB
:1019E000570608F058C080910001909101010097BE
:1019F00041F48DB79EB74091040150910501841BBD
:101A0000950BE817F90708F055C0F093AE02E09384
:101A1000AD02F90171836083A0CF8D919C911197E4
:101A200012966C90129713967C901397A815B9058F
:101A300059F56C0142E0C40ED11CCA14DB0420F13C
:101A4000AC014A195B09DA011296159780F062829F
:101A5000738251834083D9016D937C93E114F10427
:101A600071F0D7011396FC93EE93129776CF2296DE
:101A70008C0F9D1FF90191838083F301EFCFF093C9
:101A8000B002E093AF0269CF4816590608F42C0162
:101A90007D01D3019ACFCB010E947B0B7C01009783
:101AA00049F0AE01B8010E945D0DC8010E94170CFB
:101AB000870153CF10E000E050CFFB01DC0102C0F2
:101AC00001900D9241505040D8F70895FB01DC0180
:101AD00001900D920020E1F70895FB0151915523EB
:101AE000A9F0BF01DC014D9145174111E1F759F40F
:101AF000CD010190002049F04D9140154111C9F3ED
:101B0000FB014111EFCF81E090E00197089510E0D3
:101B1000CDE5D0E004C0FE010E94750B2196CE35C4
:081B2000D107C9F7F894FFCFCB
:101B28000000B102800000000000D0010401310172
:101B38001D02A20140019401000000008F0362030E
:101B4800C30338035B034803390320003A002F001E
:107E0000112484B714BE81FFF0D085E080938100F7
:107E100082E08093C00088E18093C10086E0809377
:107E2000C20080E18093C4008EE0C9D0259A86E02C
:107E300020E33CEF91E0309385002093840096BBD3
:107E4000B09BFECF1D9AA8958150A9F7CC24DD24C4
:107E500088248394B5E0AB2EA1E19A2EF3E0BF2EE7
:107E6000A2D0813461F49FD0082FAFD0023811F036
:107E7000013811F484E001C083E08DD089C08234E0
:107E800011F484E103C0853419F485E0A6D080C0E4
:107E9000853579F488D0E82EFF2485D0082F10E0AE
:107EA000102F00270E291F29000F111F8ED06801E7
:107EB0006FC0863521F484E090D080E0DECF843638
:107EC00009F040C070D06FD0082F6DD080E0C81688
:107ED00080E7D80618F4F601B7BEE895C0E0D1E017
:107EE00062D089930C17E1F7F0E0CF16F0E7DF06D8
:107EF00018F0F601B7BEE89568D007B600FCFDCFD4
:107F0000A601A0E0B1E02C9130E011968C91119780
:107F100090E0982F8827822B932B1296FA010C0160
:107F200087BEE89511244E5F5F4FF1E0A038BF0790
:107F300051F7F601A7BEE89507B600FCFDCF97BE46
:107F4000E89526C08437B1F42ED02DD0F82E2BD052
:107F50003CD0F601EF2C8F010F5F1F4F84911BD097
:107F6000EA94F801C1F70894C11CD11CFA94CF0C13
:107F7000D11C0EC0853739F428D08EE10CD085E9AC
:107F80000AD08FE07ACF813511F488E018D01DD067
:107F900080E101D065CF982F8091C00085FFFCCF94
:107FA0009093C60008958091C00087FFFCCF809118
:107FB000C00084FD01C0A8958091C6000895E0E648
:107FC000F0E098E1908380830895EDDF803219F02E
:107FD00088E0F5DFFFCF84E1DECF1F93182FE3DFCA
:107FE0001150E9F7F2DF1F91089580E0E8DFEE27F6
:047FF000FF270994CA
:027FFE00040479
:0400000300007E007B
:00000001FF
