:100000000C9458000C9480000C9480000C94800098
:100010000C9480000C9480000C9480000C94800060
:100020000C9480000C9480000C9480000C94800050
:100030000C9480000C9480000C9480000C94800040
:100040000C944D050C9480000C941B050C94F50445
:100050000C9480000C9480000C9480000C94800020
:100060000C9497050C9480000000000025002800E7
:100070002B00040404040404040402020202020229
:10008000030303030303010204081020408001025C
:1000900004081020010204081020000000080002DB
:1000A0000100000304070000000000000000B60685
:1000B00011241FBECFEFD8E0DEBFCDBF22E0A2E308
:1000C000B1E001C01D92A83AB207E1F711E0A0E04B
:1000D000B1E0E2EAF8E102C005900D92A233B10767
:1000E000D9F710E0C8E5D0E004C02197FE010E94D6
:1000F0003D0AC735D107C9F70E94EF060C944F0C93
:100100000C94000090E0FC01E656FF4F2491FC01A6
:10011000EA57FF4F3491FC01EE58FF4FE491EE2374
:10012000B1F0222339F02330E9F090F4213001F1CD
:10013000223011F1F0E0EE0FFF1FE859FF4FA591BB
:10014000B4918FB7F894EC913E2B3C938FBF0895F8
:100150002730A9F02830C9F0243061F78091800061
:100160008F7D03C0809180008F7780938000E2CFE5
:1001700084B58F7784BDDECF84B58F7DFBCF809132
:10018000B0008F778093B000D5CF8091B0008F7D85
:10019000F9CF982F2091FA0181E0213208F043C075
:1001A0008091D6018111FCCF8091F90132E030932A
:1001B000D6019093D5019FEF9093D4011092D30173
:1001C0002093D201A9EDB1E0E2EBF1E090E0291338
:1001D00031C01092B1019091B101880F892B8093A9
:1001E000B1018091B001813049F51092B001809148
:1001F000B1018093BB008091BC0083FDF8CF85ECFA
:100200008093BC008091D6018230E1F38091D401CB
:100210008F3FB1F08091D4018032A1F08091D40160
:10022000803391F084E01092D8011092FA0110927C
:10023000D70108953D9131939F5FC9CF85EEE0CFFF
:1002400080E0F1CF82E0EFCF83E0EDCF0895089515
:100250000895AF92BF92CF92DF92EF92FF920F93E9
:100260001F93CF93DF936C017B018B01040F151F4C
:10027000EB015E01AE18BF08C017D10759F06991B4
:10028000D601ED91FC910190F081E02DC601099518
:10029000892B79F7C501DF91CF911F910F91FF90C5
:1002A000EF90DF90CF90BF90AF900895FC01538DF9
:1002B000448D252F30E0842F90E0821B930B541740
:1002C00010F0CF96089501970895FC01918D828DCD
:1002D000981761F0A28DAE0FBF2FB11D5D968C9166
:1002E000928D9F5F9F73928F90E008958FEF9FEFA5
:1002F00008952FB7F8948091AC019091AD01A09131
:10030000AE01B091AF012FBF80930302909304021E
:10031000A0930502B09306028BEF91E00E94650165
:1003200097FF26C02FB7F8948091AC019091AD0152
:10033000A091AE01B091AF012FBF40910302509147
:1003400004026091050270910602841B950BA60BB6
:10035000B70B4091FF015091000260910102709132
:10036000020284179507A607B707B0F28FEF9FEF39
:100370000895FC01918D828D981731F0828DE80FE0
:10038000F11D858D90E008958FEF9FEF0895FC019A
:10039000918D228D892F90E0805C9F4F821B910967
:1003A0008F73992708958BEF91E00E94C70121E098
:1003B000892B09F420E0822F089580E090E0892BBA
:1003C00029F00E94D30181110C9400000895FC01D2
:1003D000A48DA80FB92FB11DA35ABF4F2C91848DA6
:1003E00090E001968F739927848FA689B7892C9303
:1003F000A089B1898C91837080648C93938D848D56
:10040000981306C00288F389E02D80818F7D808358
:100410000895EF92FF920F931F93CF93DF93EC0118
:1004200081E0888F9B8D8C8D98131AC0E889F9899B
:10043000808185FF15C09FB7F894EE89FF8960839E
:10044000E889F98980818370806480839FBF81E01F
:1004500090E0DF91CF911F910F91FF90EF90089561
:10046000F62E0B8D10E00F5F1F4F0F731127E02E3C
:100470008C8D8E110CC00FB607FCFACFE889F98974
:10048000808185FFF5CFCE010E94E701F1CFEB8D92
:10049000EC0FFD2FF11DE35AFF4FF0829FB7F89448
:1004A0000B8FEA89FB8980818062CFCFCF93DF9366
:1004B000EC01888D8823B9F0AA89BB89E889F9897C
:1004C0008C9185FD03C0808186FD0DC00FB607FCB1
:1004D000F7CF8C9185FFF2CF808185FFEDCFCE01E4
:1004E0000E94E701E9CFDF91CF9108953FB7F894DB
:1004F0008091760190917701A0917801B091790176
:1005000026B5A89B05C02F3F19F00196A11DB11D6E
:100510003FBFBA2FA92F982F8827BC01CD01620FAA
:10052000711D811D911D42E0660F771F881F991F65
:100530004A95D1F7089585ED8093BC008091BC0069
:1005400084FDFCCF1092D601089520915201260F10
:100550003327331F21323105ECF42091D601FC0101
:1005600090E080E0243069F082E00895A09152018B
:100570002191AC014E5C5E4FA40FB52FB11D2C93A1
:100580000196861798F380915201680F609352018B
:1005900080E0089581E008950895E0917F018091C1
:1005A0007E01E81730F4F0E0E058FE4F808190E0E3
:1005B00008958FEF9FEF089590917F0180917E01C4
:1005C0002FEF3FEF981748F4E92FF0E0E058FE4F87
:1005D000208130E09F5F90937F01C9010895809151
:1005E0007E0190917F01891B990B0895CF92DF9234
:1005F000EF92FF920F931F93CF93DF937C01CB0178
:100600008A012091D701222389F0EB016B01C40EEE
:10061000D51ECC15DD0569F06991D701ED91FC91EE
:100620000190F081E02DC7010995F3CF642F0E945E
:10063000A502C801DF91CF911F910F91FF90EF901C
:10064000DF90CF900895CF93DF931F92CDB7DEB7A1
:1006500069832091D7012223F9F02091FA012032F9
:1006600058F021E030E0FC013383228390E080E009
:100670000F90DF91CF9108958091D801E82FF0E09D
:10068000E752FE4F998190838F5F8093D8018093CA
:10069000FA0181E090E0ECCF61E0CE0101960E948A
:1006A000A502F7CF682F88E992E00C94230390E02D
:1006B00080E00895FC0101900020E9F73197AF0137
:1006C000481B590BBC018BEF91E00C9429018F92D0
:1006D0009F92AF92BF92CF92DF92EF92FF920F93D1
:1006E0001F93CF93DF93CDB7DEB7A1970FB6F894E2
:1006F000DEBF0FBECDBF6C01990FEE08FF08F7FEFD
:1007000041C06DE28BEF91E00E9409028C0122272B
:100710003327A9012C193D094E095F0919A2CE0101
:1007200081967C019AE0892E912CA12CB12CCA01D2
:10073000B901A50194010E941B0A605DF701629353
:100740007F01211531054105510589F790E080E0D1
:10075000309719F0CF010E945A03800F911FA19684
:100760000FB6F894DEBF0FBECDBFDF91CF911F91C2
:100770000F91FF90EF90DF90CF90BF90AF909F9040
:100780008F900895A701960119A28E010F5D1F4F4A
:100790008AE0C82ED12CE12CF12CCA01B901A701A5
:1007A00096010E941B0A605DF80162938F0121157A
:1007B00031054105510589F790E080E0309779F2E5
:1007C000CF010E945A03CBCFCF93DF93EC018881F6
:1007D0009981009711F00E94DF0A198218821D8208
:1007E0001C821B821A82DF91CF9108950F931F9371
:1007F000CF93DF938C01EB01FC0180819181009705
:10080000E1F06881798161157105A9F04281538118
:100810002C813D814217530770F00E942E0C8C8171
:100820009D81F801958384831D821C82DF91CF9185
:100830001F910F9108950E94DF0A88819981F80124
:10084000918380838A819B81938382838C819D8124
:1008500095838483198218821B821A82E5CFFC015A
:1008600080819181009711F00C94A80960E070E0FC
:10087000CB0108950F931F93CF93DF93EC018881F1
:100880009981009759F02A813B812617370730F06C
:1008900081E0DF91CF911F910F9108958B016F5FE0
:1008A0007F4F0E94680B009759F0998388831B83C0
:1008B0000A832C813D81232B59F7FC011082E8CF5C
:1008C00080E0E7CFEF92FF920F931F93CF93DF93D8
:1008D0008C017B01EB0109900020E9F72197C61BF1
:1008E000D70BBE010E943A04811109C0C801DF91F3
:1008F000CF911F910F91FF90EF900C94E403F801BA
:10090000D583C483B70180819181DF91CF911F91FD
:100910000F91FF90EF900C942E0C9F92AF92BF928C
:10092000CF92DF92EF92FF920F931F93CF93DF93BB
:10093000EC016B015A0179012417350720F48B2D46
:100940005901E42EF82E198218821B821A821D8208
:100950001C8260E371E0CE010E946204D60114960D
:100960000D911C91A016B10658F5E016F10608F499
:100970008701D601ED91FC911197E00FF11F908056
:100980001082ED90FC90EA0CFB1CE114F10471F074
:10099000F70101900020E9F731975F01AE18BF0819
:1009A000B501CE010E943A04811117C0CE010E9408
:1009B000E403F60180819181080F191FD8019C92F0
:1009C000CE01DF91CF911F910F91FF90EF90DF90BB
:1009D000CF90BF90AF909F900895BD82AC82B70139
:1009E000888199810E942E0CE4CF1F920F920FB63E
:1009F0000F9211242F933F934F935F936F937F93A5
:100A00008F939F93AF93BF93EF93FF938BEF91E0FF
:100A10000E94E701FF91EF91BF91AF919F918F915C
:100A20007F916F915F914F913F912F910F900FBEEA
:100A30000F901F9018951F920F920FB60F921124CE
:100A40002F938F939F93EF93FF93E0910B02F0917D
:100A50000C028081E0911102F091120282FD1BC014
:100A60009081809114028F5F8F73209115028217FD
:100A700041F0E0911402F0E0E550FE4F958F809335
:100A80001402FF91EF919F918F912F910F900FBEC4
:100A90000F901F9018958081F4CF1F920F920FB680
:100AA0000F9211242F933F938F939F93AF93BF93F4
:100AB0008091AC019091AD01A091AE01B091AF01D8
:100AC0003091750123E0230F2D3758F50196A11DB4
:100AD000B11D209375018093AC019093AD01A0935B
:100AE000AE01B093AF018091760190917701A09112
:100AF0007801B09179010196A11DB11D8093760115
:100B000090937701A0937801B0937901BF91AF9151
:100B10009F918F913F912F910F900FBE0F901F903B
:100B2000189526E8230F0296A11DB11DD2CF1F9262
:100B30000F920FB60F9211242F933F934F935F9311
:100B40006F937F938F939F93AF93BF93EF93FF9395
:100B50008091B900887F803609F44AC0F0F5883268
:100B600009F4A7C018F5803109F49BC0B8F48823B4
:100B700009F4F9C0883009F494C0FF91EF91BF9156
:100B8000AF919F918F917F916F915F914F913F9125
:100B90002F910F900FBE0F901F901895883109F478
:100BA00088C0803251F78093D40114C0803409F496
:100BB0009DC040F48033B9F38833F9F68093D401B3
:100BC00085ECB0C0803509F485C0883509F496C03D
:100BD000883499F60E949B02D0CF883909F48CC0E2
:100BE00038F5883729F050F4883611F0803729F627
:100BF00083E08093D6011092740157C0883809F4BD
:100C00007BC0803919F0803809F0B7CF809174012A
:100C1000803208F071C0E091740181E08E0F809302
:100C200074018091BB00F0E0EC5AFE4F80833DC020
:100C3000803B39F0E0F4803A09F479C0883A09F051
:100C40009CCF84E08093D601109253011092520100
:100C5000E0917C01F0917D01099580915201811113
:100C60000FC081E0809352011092320109C0803C94
:100C700009F4A6CF883C09F4A3CF883B09F07DCFC7
:100C8000E091530181E08E0F80935301F0E0EE5C20
:100C9000FE4F80818093BB0090915301809152015F
:100CA00029C08091B1018093BB0085EC8093BC008A
:100CB00064CF9091D3018091D201981758F5E091BB
:100CC000D30181E08E0F8093D301F0E0EE54FE4F0C
:100CD0008081E9CFE091D30181E08E0F8093D30131
:100CE0008091BB00F0E0EE54FE4F80839091D301E1
:100CF0008091D2019817C8F285E8D8CFE091D3014E
:100D000081E08E0F8093D3018091BB00F0E0EE5420
:100D1000FE4F80838091D50181115CCF81E080936B
:100D2000B00184EA8093BC001092D60126CF85ECF6
:100D30008093BC001092D60180917401803230F40F
:100D4000E0917401F0E0EC5AFE4F10826091740162
:100D500070E0E0917A01F0917B0184E591E00995E2
:100D6000109274010ACF1092D40134CFEBEFF1E06E
:100D70001382128288EE93E0A0E0B0E08483958332
:100D8000A683B7832AE031E03183208325EC30E06D
:100D90003587248724EC30E03787268720EC30E045
:100DA000318B208B21EC30E0338B228B22EC30E036
:100DB000358B248B26EC30E0378B268B118E128EF0
:100DC000138E148EE8E9F2E01382128284839583F5
:100DD000A683B7838CE191E0918380830895CF93BC
:100DE000DF93CDB7DEB762970FB6F894DEBF0FBEC4
:100DF000CDBF789484B5826084BD84B5816084BDA4
:100E000085B5826085BD85B5816085BD80916E00A8
:100E1000816080936E0010928100809181008260D9
:100E20008093810080918100816080938100809116
:100E300080008160809380008091B1008460809305
:100E4000B1008091B00081608093B00080917A0001
:100E5000846080937A0080917A00826080937A0027
:100E600080917A00816080937A0080917A00806816
:100E700080937A001092C10010927F0110927E013F
:100E80001092D8011092FA011092D60181E080935D
:100E9000D5011092B00182E10E94820083E10E949C
:100EA00082008091B9008E7F8093B9008091B90053
:100EB0008D7F8093B90088E48093B80085E48093A7
:100EC000BC0086E291E090937D0180937C0187E2F3
:100ED00091E090937B0180937A01E0910B02F09175
:100EE0000C0282E08083E0910702F09108021082F8
:100EF000E0910902F0910A028FEC808310921302B4
:100F0000E0910F02F091100286E08083E0910D02E3
:100F1000F0910E02808180618083E0910D02F0915A
:100F20000E02808188608083E0910D02F0910E02B4
:100F3000808180688083E0910D02F0910E028081B3
:100F40008F7D808340E0842E40E0942EEE24E39455
:100F500022242A942AE0F22E35EE332E8BEF91E0F4
:100F60000E94C701892B09F02DC1E092D70128E624
:100F70002093F9011092D8011092FA0160E088E9FB
:100F800092E00E94230381E00E94C9008091D60173
:100F90008111FCCFE092D601E092D5012092D401DC
:100FA0001092D30186E08093D201E092B10180914A
:100FB000B101806D8093B1018091B001813009F061
:100FC000FAC01092B0018091B1018093BB00809172
:100FD000BC0083FDF8CF85EC8093BC008091D601E6
:100FE0008130E1F38091D30197E0873010F4909144
:100FF000D301A2EBB1E0E0E8F1E080E08913DEC0CC
:1010000010927F0180937E0188E992E00E94DC02C9
:10101000282F229527708F7090E02F9D800D911DB5
:1010200011249093AB018093AA0188E992E00E9479
:10103000DC02282F22952F708F7090E02F9D800D5D
:10104000911D11249093A9018093A80188E992E051
:101050000E94DC02982F929593708F70082F10E0F9
:101060009F9D000D111D11241093A7010093A6014F
:1010700088E992E00E94DC0288E992E00E94DC02AA
:10108000282F22952F708F7090E02F9D800D911D3D
:1010900011249093A5018093A40188E992E00E9415
:1010A000DC02282F22952F708F7090E02F9D800DED
:1010B000911D11249093A3018093A20188E992E0ED
:1010C0000E94DC02282F22952F708F7090E02F9DB8
:1010D000800D911D11248053984F9093A10180930E
:1010E000A001C8010E9467038AE291E00E945A03AE
:1010F0008091A8019091A9010E9467038AE291E082
:101100000E945A038091AA019091AB010E9467034B
:101110008CE291E00E945A038091A4019091A50174
:101120000E9467038CE291E00E945A038091A20121
:101130009091A3010E9467038CE291E00E945A0300
:101140008091A0019091A1010E9467038EE291E03D
:101150000E945A030E9476022B013C0198EEA92EB0
:1011600093E0B92EC12CD12C0E9476026419750926
:1011700086099709683E734081059105A8F321E02F
:10118000A21AB108C108D10888EE480E83E0581EA3
:10119000611C711CA114B104C104D10429F781148C
:1011A000910409F4DBCE0E94D301882309F4D0CE48
:1011B0000E940000CDCE3092BC0010CF2D91219323
:1011C0008F5F1CCF1E861D86188A1F861A8A198A71
:1011D00060E371E0CE010D960E9462040E947901E5
:1011E00097FD1EC08A309105D9F089831A8209893A
:1011F0001A890F5F1F4FB801CE010D960E943A0465
:10120000882361F32D853E8589899A89BE016F5FA8
:101210007F4F820F931F0E942E0C1A8B098BDECFFB
:1012200018861F821A8619861C861B8660E371E069
:10123000CE0107960E94620487E0C82ED12C1A8244
:1012400019821C821B821E821D826CE271E0CE011B
:1012500001960E94620489899A89A980BA80892BA3
:1012600059F06D847E84B501C3010E94350C8C0158
:1012700006191709892B11F40FEF1FEFC5010E9402
:10128000DF0A980150E040E0BE01635F7F4FCE016E
:1012900001960E948D04BE016F5F7F4FCE010796BD
:1012A0000E94F60389819A810E94DF0A29893A897E
:1012B000A8014F5F5F4FBE01635F7F4FCE01019674
:1012C0000E948D04BE016F5F7F4FCE010D960E947C
:1012D000F60389819A810E94DF0A81E0C81AD10849
:1012E00009F0ADCFE092D70128E62093F9011092E2
:1012F000D8011092FA0160E088E992E00E9423038D
:1013000085E490E00E94520383E190E00E94520342
:1013100083E090E00E94520387E090E00E94520335
:1013200086E290E00E94520382E190E00E94520324
:1013300080E290E00E94520381E00E94C9008F8108
:1013400098850E94DF0A8D859E850E94DF0A27CF3F
:101350001F93FC0199278827BC01E8941191103252
:10136000E9F3193010F01E30C8F31B3251F01D3272
:1013700049F4689406C00E94CF09610F711D811D58
:10138000911D119110531A30B0F33EF49095809551
:10139000709561957F4F8F4F9F4F1F910895592FE3
:1013A000482F372F262F660F771F881F991F660F2C
:1013B000771F881F991F620F731F841F951F660F69
:1013C000771F881F991F08952F923F924F925F9227
:1013D0006F927F928F929F92AF92BF92CF92DF9245
:1013E000EF92FF920F931F93CF93DF93CDB7DEB7AA
:1013F000CA1BDB0B0FB6F894DEBF0FBECDBF09943E
:101400002A88398848885F846E847D848C849B8494
:10141000AA84B984C884DF80EE80FD800C811B81A2
:10142000AA81B981CE0FD11D0FB6F894DEBF0FBED1
:10143000CDBFED010895A1E21A2EAA1BBB1BFD0131
:101440000DC0AA1FBB1FEE1FFF1FA217B307E407A3
:10145000F50720F0A21BB30BE40BF50B661F771FFB
:10146000881F991F1A9469F76095709580959095DB
:101470009B01AC01BD01CF010895EE0FFF1F059048
:10148000F491E02D09940F931F93CF93DF93823053
:10149000910510F482E090E0E091A602F091A7029D
:1014A00030E020E0B0E0A0E0309799F4211531055C
:1014B00009F44AC0281B390B24303105D8F58A813C
:1014C0009B816115710589F1FB0193838283FE0184
:1014D00011C0408151810281138148175907E0F002
:1014E0004817590799F4109761F012960C931297C8
:1014F00013961C933296CF01DF91CF911F910F91DC
:1015000008950093A6021093A702F4CF2115310588
:1015100051F04217530738F0A901DB019A01BD01D0
:10152000DF01F801C1CFEF01F9CF9093A7028093BB
:10153000A602CDCFFE01E20FF31F819391932250BB
:10154000310939832883D7CF2091A4023091A50295
:10155000232B41F420910201309103013093A50225
:101560002093A40220910001309101012115310541
:1015700041F42DB73EB74091040150910501241B61
:10158000350BE091A402F091A502E217F307A0F455
:101590002E1B3F0B2817390778F0AC014E5F5F4FC9
:1015A0002417350748F04E0F5F1F5093A502409354
:1015B000A402819391939FCFF0E0E0E09CCFCF9382
:1015C000DF930097E9F0FC01329713821282A09119
:1015D000A602B091A702ED0130E020E01097A1F43F
:1015E00020813181820F931F2091A4023091A502A6
:1015F0002817390709F061C0F093A502E093A4020F
:10160000DF91CF910895EA01CE17DF07E8F54A810F
:101610005B819E0141155105B1F7E901FB83EA8326
:1016200049915991C40FD51FEC17FD0761F48081D2
:1016300091810296840F951FE901998388838281A5
:1016400093819B838A83F0E0E0E012968D919C91D8
:1016500013970097B9F52D913C911197CD01029602
:10166000820F931F2091A4023091A50228173907F9
:1016700039F6309751F51092A7021092A602B09356
:10168000A502A093A402BCCFD383C2834081518121
:10169000840F951FC817D90761F44E5F5F4F88818B
:1016A0009981480F591F518340838A819B8193837D
:1016B00082832115310509F0B0CFF093A702E093A2
:1016C000A6029ECFFD01DC01C0CF13821282D7CFCC
:1016D000B0E0A0E0EEE6FBE00C94E6098C01009798
:1016E00051F4CB010E94430A8C01C801CDB7DEB78B
:1016F000E0E10C94020AFC01E60FF71F9C01225066
:101700003109E217F30708F49DC0D901CD91DC91AE
:101710001197C617D70798F0C530D10530F3CE0121
:1017200004978617970708F3C61BD70B2297C19318
:10173000D1936D937C93CF010E94DF0AD6CF5B01DA
:10174000AC1ABD0A4C018C0E9D1EA091A602B09150
:10175000A702512C412CF12CE12C109731F58091EE
:10176000A4029091A5028815990509F05CC046165F
:10177000570608F058C08091000190910101009730
:1017800041F48DB79EB74091040150910501841B2F
:10179000950BE817F90708F055C0F093A502E09300
:1017A000A402F90171836083A0CF8D919C91119760
:1017B00012966C90129713967C901397A815B90502
:1017C00059F56C0142E0C40ED11CCA14DB0420F1AF
:1017D000AC014A195B09DA011296159780F0628212
:1017E000738251834083D9016D937C93E114F1049A
:1017F00071F0D7011396FC93EE93129776CF229651
:101800008C0F9D1FF90191838083F301EFCFF0933B
:10181000A702E093A60269CF4816590608F42C01E6
:101820007D01D3019ACFCB010E94430A7C0100972E
:1018300049F0AE01B8010E94250CC8010E94DF0AE0
:10184000870153CF10E000E050CFFB01DC0102C064
:1018500001900D9241505040D8F70895FB01DC01F2
:1018600001900D920020E1F70895FB01519155235D
:10187000A9F0BF01DC014D9145174111E1F759F481
:10188000CD010190002049F04D9140154111C9F35F
:10189000FB014111EFCF81E090E001970895F894AA
:0218A000FFCF78
:1018A2000000A80280000000000009022901560180
:1018B2005602C7016501B901000000002303F602C8
:1018C2005703CC02EF02DC02CD023A0020000D0ADF
:0218D200000014
:107E0000112484B714BE81FFF0D085E080938100F7
:107E100082E08093C00088E18093C10086E0809377
:107E2000C20080E18093C4008EE0C9D0259A86E02C
:107E300020E33CEF91E0309385002093840096BBD3
:107E4000B09BFECF1D9AA8958150A9F7CC24DD24C4
:107E500088248394B5E0AB2EA1E19A2EF3E0BF2EE7
:107E6000A2D0813461F49FD0082FAFD0023811F036
:107E7000013811F484E001C083E08DD089C08234E0
:107E800011F484E103C0853419F485E0A6D080C0E4
:107E9000853579F488D0E82EFF2485D0082F10E0AE
:107EA000102F00270E291F29000F111F8ED06801E7
:107EB0006FC0863521F484E090D080E0DECF843638
:107EC00009F040C070D06FD0082F6DD080E0C81688
:107ED00080E7D80618F4F601B7BEE895C0E0D1E017
:107EE00062D089930C17E1F7F0E0CF16F0E7DF06D8
:107EF00018F0F601B7BEE89568D007B600FCFDCFD4
:107F0000A601A0E0B1E02C9130E011968C91119780
:107F100090E0982F8827822B932B1296FA010C0160
:107F200087BEE89511244E5F5F4FF1E0A038BF0790
:107F300051F7F601A7BEE89507B600FCFDCF97BE46
:107F4000E89526C08437B1F42ED02DD0F82E2BD052
:107F50003CD0F601EF2C8F010F5F1F4F84911BD097
:107F6000EA94F801C1F70894C11CD11CFA94CF0C13
:107F7000D11C0EC0853739F428D08EE10CD085E9AC
:107F80000AD08FE07ACF813511F488E018D01DD067
:107F900080E101D065CF982F8091C00085FFFCCF94
:107FA0009093C60008958091C00087FFFCCF809118
:107FB000C00084FD01C0A8958091C6000895E0E648
:107FC000F0E098E1908380830895EDDF803219F02E
:107FD00088E0F5DFFFCF84E1DECF1F93182FE3DFCA
:107FE0001150E9F7F2DF1F91089580E0E8DFEE27F6
:047FF000FF270994CA
:027FFE00040479
:0400000300007E007B
:00000001FF
