:020000040000FA
:100000000C9473000C949B000C949B000C949B002C
:100010000C949B000C949B000C949B000C949008F7
:100020000C949B000C949B000C949B000C949B00E4
:100030000C949B000C949B000C949B000C949B00D4
:100040000C9412090C949B000C949B000C949B0044
:100050000C949B000C949B000C949B000C949B00B4
:100060000C945C090C949B001F1C1F1E1F1E1F1F5D
:100070001E1F1E1F00000000240027002A00000091
:1000800000002300260029000000000800020100F3
:1000900000030407000000000000000031363A337E
:1000A000343A3237004A616E202032203230323109
:1000B0000001020408102040800102040810200101
:1000C000020408102000000000250028002B000476
:1000D00004040404040404020202020202030303EF
:1000E00003030302880A11241FBECFEFD8E0DEBF4E
:1000F000CDBF15E0A0E0B1E0E6E5F7E202C0059073
:100100000D92AE36B107D9F726E0AEE6B5E001C0F4
:100110001D92AC36B207E1F710E0C3E7D0E004C0AF
:100120002197FE010E948D13C237D107C9F70E94A3
:10013000B70A0C94A9130C94000008950895AF9287
:10014000BF92CF92DF92EF92FF920F931F93CF93C4
:10015000DF936C017B018B01040F151FEB015E0126
:10016000AE18BF08C017D10759F06991D601ED91BB
:10017000FC910190F081E02DC6010995892B79F75A
:10018000C501DF91CF911F910F91FF90EF90DF900C
:10019000CF90BF90AF900895833081F028F48130E4
:1001A00099F08230A9F008958730A9F08830C9F01D
:1001B0008430B1F4809180008F7D03C080918000F5
:1001C0008F7780938000089584B58F7784BD0895DC
:1001D00084B58F7DFBCF8091B0008F778093B00086
:1001E00008958091B0008F7DF9CFCF93DF93282FB2
:1001F00030E0F901E857FF4F8491F901EF54FF4FC8
:10020000D491F901E153FF4FC491CC23A1F08111A6
:100210000E94CC00EC2FF0E0EE0FFF1FE258FF4FE2
:10022000A591B491EC91ED2381E090E009F480E098
:10023000DF91CF91089580E090E0FACF1F93CF93A4
:10024000DF93282F30E0F901E857FF4F8491F9013F
:10025000EF54FF4FD491F901E153FF4FC491CC23E8
:10026000A9F0162F81110E94CC00EC2FF0E0EE0FC8
:10027000FF1FEB53FF4FA591B4918FB7F894EC910A
:10028000111108C0D095DE23DC938FBFDF91CF9191
:100290001F910895DE2BF8CFCF93DF9390E0FC0100
:1002A000EF54FF4F249181539F4FFC018491882389
:1002B000D1F090E0880F991FFC01EC58FF4FA591F9
:1002C000B491FC01EB53FF4FC591D49161110EC065
:1002D0009FB7F8948C91E22FE0958E238C93288120
:1002E000E223E8839FBFDF91CF9108958FB7F89401
:1002F000EC91E22BEC938FBFF6CF3FB7F89480914F
:10030000B7059091B805A091B905B091BA0526B589
:10031000A89B05C02F3F19F00196A11DB11D3FBF3D
:10032000BA2FA92F982F8827BC01CD01620F711D0C
:10033000811D911D42E0660F771F881F991F4A9506
:10034000D1F708958F929F92AF92BF92CF92DF9292
:10035000EF92FF926B017C010E947D014B015C01D9
:10036000C114D104E104F104B9F00E947D016819BF
:1003700079098A099B09683E73408105910580F3DC
:1003800021E0C21AD108E108F10888EE880E83E066
:10039000981EA11CB11CE4CFFF90EF90DF90CF908E
:1003A000BF90AF909F908F9008950895FC01DB015E
:1003B0008C91808311968C911197818312968C91E8
:1003C0001297828313968C911397838314968C9142
:1003D0001497848315968C918583089520918F05B9
:1003E000260F3327331F21323105ECF420911E06EE
:1003F000FC0190E080E0243069F082E00895A09153
:100400008F052191AC0141595A4FA40FB52FB11D51
:100410002C930196861798F380918F05680F60934F
:100420008F0580E0089581E0089510921E0681E016
:1004300080931D061092F80561E082E10E941E0182
:1004400061E083E10E941E01E9EBF0E080818E7F94
:10045000808380818D7F808388E48093B80085E4E9
:100460008093BC000895CF93DF9391E090936E0545
:100470008823B9F0C091B800D091BA008091BC0037
:100480008A7B8093BC0060E082E10E941E0160E0F4
:1004900083E10E941E010E941502D093BA00C0930E
:1004A000B800DF91CF9108958F929F92AF92BF9243
:1004B000CF92DF92EF92FF920F931F93CF93DF9330
:1004C000D0914706D13208F0D7C0182FC091460608
:1004D0000E947D016B017C0180911E0681116BC021
:1004E00082E080931E0610931D068FEF80931C06FA
:1004F00010921B06D0931A06A6E2B6E0EAEFF5E0EA
:1005000080E0D81391C01092F9058091F905CC0FC5
:10051000C82BC093F9058091F805813009F088C097
:100520001092F8050E947D016B017C018091F90514
:100530008093BB008091200690912106A091220615
:10054000B0912306892B8A2B8B2BA1F00E947D0171
:100550000091200610912106209122063091230659
:100560006C197D098E099F09061717072807390797
:1005700008F442C08091BC0083FDD8CF85EC809305
:10058000BC000E947D016B017C0180911E068230BF
:1005900009F450C080911C068F3F09F46FC0809110
:1005A0001C06803209F46CC080911C06803309F46B
:1005B00069C084E026C08091200690912106A09118
:1005C0002206B0912306892B8A2B8B2B09F484CF2A
:1005D0000E947D018090200690902106A090220626
:1005E000B09023066C197D098E099F09861697061F
:1005F000A806B90608F070CF80911F060E9433024A
:1006000085E0109225061092470610922406DF918D
:10061000CF911F910F91FF90EF90DF90CF90BF90FF
:10062000AF909F908F9008959D9191938F5F69CF28
:1006300085EEA5CF8091200690912106A0912206FB
:10064000B0912306892B8A2B8B2B09F49ECF0E9415
:100650007D01009120061091210620912206309103
:1006600023066C197D098E099F09061717072807AD
:10067000390708F08ACFC0CF81E0C3CF80E0C1CF77
:1006800082E0BFCF83E0BDCFCF92DF92EF92FF92A7
:100690000F931F93CF93DF93D82FC62F613208F0AB
:1006A00098C00E947D016B017C0180911E06811122
:1006B0006BC081E080931E0680931D069FEF909390
:1006C0001C0610921B069C0F90931A068093F90546
:1006D0008091F905DD0FD82BD093F9058091F805AD
:1006E000813009F078C01092F8050E947D016B01FD
:1006F0007C018091F9058093BB0080912006909148
:100700002106A0912206B0912306892B8A2B8B2BE0
:10071000A1F00E947D0100912006109121062091F8
:100720002206309123066C197D098E099F09061750
:1007300017072807390708F448C08091BC0083FDDB
:10074000D8CF85EC8093BC000E947D016B017C01B9
:1007500080911E06813009F440C080911B068C17E1
:1007600010F4C0911B06EAEFF5E0A8EDB5E080E0DB
:100770008C1355C08C2FDF91CF911F910F91FF905B
:10078000EF90DF90CF900895809120069091210600
:10079000A0912206B0912306892B8A2B8B2B09F47A
:1007A00084CF0E947D0100912006109121062091A6
:1007B0002206309123066C197D098E099F090617C0
:1007C00017072807390708F070CF80911F060E948D
:1007D0003302C0E0CFCF85EEB5CF80912006909157
:1007E0002106A0912206B0912306892B8A2B8B2B00
:1007F00009F4AECF0E947D010091200610912106E0
:1008000020912206309123066C197D098E099F09DB
:10081000061717072807390708F09ACFD6CF919106
:100820009D938F5FA5CF0895E091C0058091BF058E
:10083000E81730F4F0E0E852FA4F808190E0089534
:100840008FEF9FEF08959091C0058091BF052FEF26
:100850003FEF981748F4E92FF0E0E852FA4F208173
:1008600030E09F5F9093C005C90108958091BF0556
:100870009091C005891B990B0895CF92DF92EF925A
:10088000FF920F931F93CF93DF937C01CB018A01DB
:1008900020912406222389F0EB016B01C40ED51EA2
:1008A000CC15DD0569F06991D701ED91FC910190BE
:1008B000F081E02DC7010995F3CF642F0E94EE016E
:1008C000C801DF91CF911F910F91FF90EF90DF90C2
:1008D000CF900895CF93DF931F92CDB7DEB7698392
:1008E000209124062223F9F020914706203258F067
:1008F00021E030E0FC013383228390E080E00F9020
:10090000DF91CF91089580912506E82FF0E0EA5D10
:10091000F94F998190838F5F8093250680934706D6
:1009200081E090E0ECCF61E0CE0101960E94EE0103
:10093000F7CF1F93CF93DF93EC0181E080932406E0
:1009400088E680934606109225061092470660E0DE
:1009500088E496E00E946A042D811AE0822F612FBC
:100960000E942C13682F660F680F660F620F88E4D1
:1009700096E00E946A042C81822F612F0E942C1322
:10098000682F660F680F660F620F88E496E00E947A
:100990006A042B81822F612F0E942C13682F660F0F
:1009A000680F660F620F88E496E00E946A0460E0B8
:1009B00088E496E00E946A042A81822F612F0E94B7
:1009C0002C13682F660F680F660F620F88E496E09D
:1009D0000E946A042981822F612F0E942C13682FA4
:1009E000660F680F660F620F88E496E00E946A0443
:1009F0002881822F612F0E942C13682F660F680FA9
:100A0000660F620F88E496E00E946A0481E0DF913D
:100A1000CF911F910C94540290E080E008959C01C6
:100A20002D7F21303105C1F085309105A9F09C0161
:100A3000275031092230310578F08A30910561F074
:100A40008C30910549F0029751F463707727672B3A
:100A500049F08CE190E008958FE190E008958EE1F7
:100A600090E008958DE190E008958F929F92AF926B
:100A7000BF920F931F93CF93DF93CDB7DEB7A197AC
:100A80000FB6F894DEBF0FBECDBF19A2423008F4F6
:100A90004AE08E010F5D1F4F842E912CB12CA12CAA
:100AA000A50194010E944C13E62FB901CA01EA3056
:100AB00044F5E05DD801EE938D01232B242B252BEB
:100AC00079F790E080E0109769F0FD010190002037
:100AD000E9F73197AF014A1B5B0BBD0184E596E056
:100AE0000E949F00A1960FB6F894DEBF0FBECDBF47
:100AF000DF91CF911F910F91BF90AF909F908F90FA
:100B00000895E95CD7CFFC0101900020E9F7319707
:100B1000AF01481B590BBC0184E596E00C949F0083
:100B2000682F70E090E080E04AE00C943505CF93A8
:100B3000DF93EC0160E08E810E941E0161E08E81F6
:100B40000E941E0160E08E810E941E018BE891E0F0
:100B50000197F1F7DF91CF910895CF92DF92EF9255
:100B6000FF920F931F93CF93DF936C017C0187E07B
:100B7000E80EF11CD0E0C0E0062F10E0B8010C2E0A
:100B800002C0759567950A94E2F76170F70181914B
:100B90007F010E941E012196C430D10579F7C6015C
:100BA000DF91CF911F910F91FF90EF90DF90CF9049
:100BB0000C949705CF92DF92EF92FF920F931F93C1
:100BC000CF93DF93EC01F62E642F8C810E941E01DF
:100BD0008D818F3F19F060E00E941E010F2D10E003
:100BE0008F8584FF25C06E0187E0C80ED11CF12CD3
:100BF000E12CB8010E2C02C0759567950A94E2F7B6
:100C00006170F60181916F010E941E01FFEFEF1AE2
:100C1000FF0A88E0E816F10461F7CE01DF91CF9179
:100C20001F910F91FF90EF90DF90CF900C9497055C
:100C3000B80184E0759567958A95E1F7CE010E9429
:100C4000AD056F2DCE01DF91CF911F910F91FF90D8
:100C5000EF90DF90CF900C94AD0540E0682F84E5D5
:100C600096E00C94DA0581E00E942D068BE39FE16B
:100C70000197F1F70895CF93DF93613029F09091B8
:100C80006306986090936306609367061092680607
:100C900090E49093690680936A06805C80936B066B
:100CA00061E0809158060E944C01809159068F3F67
:100CB00019F061E00E944C0161E080915A060E94A7
:100CC0004C01C4E5D6E09E01245536408091630670
:100CD00084FD0BC084E090E021962817390744F486
:100CE00061E08E810E944C01EECF88E090E0F4CF6D
:100CF0008BE39DE00197F1F760E0809158060E9438
:100D00001E0160E080915A060E941E0180915906E2
:100D10008F3F19F060E00E941E018091630684FD00
:100D200034C063E084E596E00E94AD05CBE4D6E4F0
:100D3000CE010197F1F763E084E596E00E94AD05EE
:100D40002197F1F763E084E596E00E94AD0583E525
:100D500092E00197F1F762E084E596E00E94AD052C
:100D60008091630680620E942D0684E08093640671
:100D70008CE00E942D060E94330682E08093650677
:100D800086E0DF91CF910C942D0680620E942D06A3
:100D90008BE496E40197F1F78091630680620E94EC
:100DA0002D0683E592E00197F1F78091630680625A
:100DB0000E942D06D5CF643008F063E0909167065D
:100DC000691710F06FEF690FE62FF0E0EC5AF94F5A
:100DD0009489890F80680C942D0641E00E94DA0501
:100DE00081E090E0089541E0682F84E596E00E945C
:100DF000DA0581E090E00895CF92DF92EF92FF92C2
:100E0000CF93DF936C01990FEE08FF08F7FE17C030
:100E10008DE20E94F306EC0166277727CB016C195F
:100E20007D098E099F094AE00E9435058C0F9D1FA0
:100E3000DF91CF91FF90EF90DF90CF9008954AE03F
:100E4000C701B601DF91CF91FF90EF90DF90CF9077
:100E50000C9435050F931F93CF93DF938C01EB0117
:100E600061E080E00E94DB060A30110524F48FE97E
:100E700094E00E948305C8010E94FC068AE30E9458
:100E8000F306CA30D10524F48FE994E00E9483056B
:100E9000CE01DF91CF911F910F910C94FC068F92A0
:100EA0009F92AF92BF92CF92DF92EF92FF920F93F9
:100EB0001F93CF93DF934C015B016A01E90160E06E
:100EC00080E00E94DB068AE08816910424F48FE912
:100ED00094E00E948305C4010E94FC068FE20E94F8
:100EE000F3068AE0A816B10424F48FE994E00E9486
:100EF0008305C5010E94FC068FE20E94F3068AE08A
:100F0000C816D10424F48FE994E00E948305C60139
:100F10000E94FC0661E080E00E94DB06CA30D10539
:100F200024F48FE994E00E948305CE010E94FC0620
:100F30008AE30E94F3060A30110524F48FE994E055
:100F40000E948305C8010E94FC068AE30E94F30602
:100F50008AE0E816F10424F48FE994E00E94830506
:100F6000C701DF91CF911F910F91FF90EF90DF901C
:100F7000CF90BF90AF909F908F900C94FC06CF9332
:100F8000DF93EC0160E080E00E94DB068A818A301A
:100F900028F48FE994E00E9483058A810E949005DD
:100FA0008FE20E94F30689818A3028F48FE994E069
:100FB0000E94830589810E9490058FE20E94F306BA
:100FC000688170E06053784F072E000C880B990BF6
:100FD0004AE00E94350581EA94E00E948305698118
:100FE0009881492F50E08A81282F30E0E8E6F0E030
:100FF00081E0861730F47491270F311D8F5F319691
:10100000F8CF633020F0937011F42F5F3F4F6DE6FF
:1010100071E0469FC001479F900D569F900D11248F
:1010200005964D5F5F4F5695479556954795840FAA
:10103000951F820F931F67E070E00E9438134CE009
:10104000489F9001499F300D1124C90180509F4F46
:101050000E94830583EA94E00E94830561E080E0BA
:101060000E94DB068B818A3028F48FE994E00E948D
:1010700083058B810E9490058AE30E94F3068C8190
:101080008A3028F48FE994E00E9483058C810E94C5
:1010900090058AE30E94F3068D818A3028F48FE957
:1010A00094E00E9483058D81DF91CF910C9490058F
:1010B00085ED8093BC008091200690912106A0913F
:1010C0002206B09123060796A11DB11D23E0B69517
:1010D000A795979587952A95D1F72091BC0024FD77
:1010E00003C010921E0608954091200650912106DB
:1010F0006091220670912306452B462B472B69F3FE
:101100000097A105B10541F025E32A95F1F700000C
:101110000197A109B109E1CF80911F060C94330218
:101120001F920F920FB60F9211242F933F934F935C
:101130005F936F937F938F939F93AF93BF93EF933F
:10114000FF938091C6059091C705A091C805B09105
:10115000C905892B8A2B8B2BD1F19091C105E09188
:10116000C205F091C3058081892780838091C605DF
:101170009091C705A091C805B091C9051816190628
:101180001A061B069CF48091C6059091C705A09194
:10119000C805B091C9050197A109B1098093C60599
:1011A0009093C705A093C805B093C905FF91EF912F
:1011B000BF91AF919F918F917F916F915F914F916F
:1011C0003F912F910F900FBE0F901F901895809117
:1011D0005401E3EEF0E0E4919FEF90935401E1308D
:1011E00051F030F0E23069F060E00E941E01DECF85
:1011F00010926E00F9CF90916F009D7F90936F00D9
:10120000F3CF909170009D7F9093700091E0909348
:10121000B0009091B100987F94609093B1001092CB
:10122000B300E2CF1F920F920FB60F9211242F93AB
:101230003F938F939F93AF93BF938091B30590910A
:10124000B405A091B505B091B6053091B20523E083
:10125000230F2D3758F50196A11DB11D2093B2051E
:101260008093B3059093B405A093B505B093B605EC
:101270008091B7059091B805A091B905B091BA05D4
:101280000196A11DB11D8093B7059093B805A09359
:10129000B905B093BA05BF91AF919F918F913F91DE
:1012A0002F910F900FBE0F901F90189526E8230FD7
:1012B0000296A11DB11DD2CF1F920F920FB60F92B1
:1012C00011242F933F934F935F936F937F938F934B
:1012D0009F93AF93BF93EF93FF938091B900887F63
:1012E000803609F44AC0F0F5883209F4A7C018F531
:1012F000803109F49BC0B8F4882309F4F9C0883020
:1013000009F494C0FF91EF91BF91AF919F918F919C
:101310007F916F915F914F913F912F910F900FBEF1
:101320000F901F901895883109F488C0803251F7CA
:1013300080931C0614C0803409F49DC040F48033AF
:10134000B9F38833F9F680931C0685ECB0C080357C
:1013500009F485C0883509F496C0883499F60E944E
:101360005808D0CF883909F48CC038F5883729F06F
:1013700050F4883611F0803729F683E080931E06FA
:101380001092B10557C0883809F47BC0803919F034
:10139000803809F0B7CF8091B105803208F071C074
:1013A000E091B10581E08E0F8093B1058091BB0083
:1013B000F0E0EF56FA4F80833DC0803B39F0E0F417
:1013C000803A09F479C0883A09F09CCF84E0809390
:1013D0001E061092900510928F05E091BD05F091C8
:1013E000BE05099580918F0581110FC081E0809322
:1013F0008F0510926F0509C0803C09F4A6CF883C88
:1014000009F4A3CF883B09F07DCFE091900581E0FE
:101410008E0F80939005F0E0E159FA4F8081809320
:10142000BB009091900580918F0529C08091F905AE
:101430008093BB0085EC8093BC0064CF90911B0629
:1014400080911A06981758F5E0911B0681E08E0FDF
:1014500080931B06F0E0E650FA4F8081E9CFE091DF
:101460001B0681E08E0F80931B068091BB00F0E08D
:10147000E650FA4F808390911B0680911A069817C8
:10148000C8F285E8D8CFE0911B0681E08E0F8093EB
:101490001B068091BB00F0E0E650FA4F80838091FC
:1014A0001D0681115CCF81E08093F80584EA80936A
:1014B000BC0010921E0626CF85EC8093BC001092D3
:1014C0001E068091B105803230F4E091B105F0E064
:1014D000EF56FA4F10826091B10570E0E091BB05C4
:1014E000F091BC0581E995E009951092B1050ACF0C
:1014F00010921C0634CFFC01908190539A3008F072
:1015000090E0818180532AE0929F800D11240895FC
:10151000E8E4F6E01382128288EE93E0A0E0B0E007
:1015200084839583A683B78385E894E09183808341
:10153000E4E5F6E01382128287E994E091838083E8
:101540008DE084838FEF85838CE086838BE08783B7
:101550008AE0808789E0818788E082871386148605
:1015600015861686178661E080E10C943B06CF93C2
:10157000DF93CDB7DEB7A7970FB6F894DEBF0FBEE7
:10158000CDBF789484B5826084BD84B5816084BD0C
:1015900085B5826085BD85B5816085BD80916E0011
:1015A000816080936E001092810080918100826042
:1015B000809381008091810081608093810080917F
:1015C00080008160809380008091B100846080936E
:1015D000B1008091B00081608093B00080917A006A
:1015E000846080937A0080917A00826080937A0090
:1015F00080917A00816080937A0080917A0080687F
:1016000080937A001092C10060E086E00E944C0155
:1016100060E085E00E944C0160E084E00E944C01A3
:1016200060E083E00E944C0164E084E10E943B069C
:101630001092C00510922506109247060E941502CE
:101640008DE990E09093BE058093BD058EE990E012
:101650009093BC058093BB0581E08093240688E6C7
:101660008093460660E088E496E00E946A0481E088
:101670000E94540261E088E60E9444038093BF0503
:1016800088E496E00E94230487FF5BC00E94330633
:1016900086EA94E00E9483054BE050E065EA70E042
:1016A000CE0101960E942313CE010A960E947B0A66
:1016B0008C87E981E154E33120F50E2E000CFF0BFD
:1016C000EC59F44F0C948D13670D810B810B7B0D3E
:1016D000810B650D810B810B810B770B810B810BCE
:1016E0006E0D790D770D810B810B810B750D8A8144
:1016F000813609F4E6C18B818E3609F0E4C186E0BB
:101700008D87CE0105960E947B0A8E8748E050E0C7
:101710006CE970E0CE0101960E942313CE01019680
:101720000E947B0A8F87CE0104960E947B0A888BD9
:10173000CE0107960E947B0A898BCE010C960E94EF
:10174000990481E08093240688E6809346061092EF
:1017500025061092470660E088E496E00E946A043D
:1017600081E00E94540267E088E60E9444031092E0
:10177000C0058093BF0588E496E00E9423048F771C
:10178000282F30E0B4E035952795BA95E1F7922FF0
:10179000990F990F122F191B110F180F88E496E05B
:1017A0000E9423049C0104E0359527950A95E1F7F2
:1017B0002F703327922F990F990F022F091B000FBB
:1017C000080F88E496E00E9423049C0194E035957C
:1017D00027959A95E1F72F703327922F990F990F3C
:1017E000F22EF91AFF0CF80E88E496E00E9423040A
:1017F00088E496E00E9423049C0144E035952795F7
:101800004A95E1F72F703327922F990F990FE22E07
:10181000E91AEE0CE80E88E496E00E9423049C018D
:1018200054E0359527955A95E1F72F703327922F7D
:10183000990F990FD22ED91ADD0CD80E88E496E0B4
:101840000E9423049C0164E0359527956A95E1F791
:101850002F703327922F990F990F291B220F820F78
:10186000888FD98EEA8EFB8E0C8F1D8FBE01685E2D
:101870007F4FCE0101960E94D6012C818091D20526
:101880009091D3052817190609F02CC22D8180915B
:10189000D4059091D5052817190609F023C2809127
:1018A000D6059091D705019709F01CC20E94330616
:1018B0008DEB94E00E94830561E080E00E94DB06EE
:1018C0008091D2059091D3058A30910544F48FE937
:1018D00094E00E9483058091D2059091D3050E94E7
:1018E000FC068AE30E94F3068091D4059091D50509
:1018F0008A30910544F48FE994E00E948305809139
:10190000D4059091D5050E94FC062BEE32E03BA356
:101910002AA385E591E09FA38EA3AAA1BBA1ED9187
:10192000FD91BBA3AAA3FDA3ECA3CF01092E000C3C
:10193000AA0BBB0B8E8F9F8FA8A3B9A3AEA1BFA18B
:101940002D903D90BFA3AEA380915401873009F044
:10195000D4C0E3EEF0E0149117FDB6C161E087E07A
:101960000E944C01112319F0123009F01FC24101ED
:10197000B12CA12C60E072E18AE790E0A501910111
:101980000E946E1329013A017A016901F1E0CF1A30
:10199000D108E108F1082FEFC216D104E104F104E7
:1019A00009F00CF468C160E472E48FE090E0A501F6
:1019B00091010E946E1369017A0181E0C81AD10871
:1019C000E108F108123009F00DC182E09FEFC9165D
:1019D000D104E104F10409F00CF46CC060E970ED8D
:1019E00083E090E0A50191010E946E1369017A01E4
:1019F000A1E0CA1AD108E108F10883E0BFEFCB16D5
:101A0000D104E104F10409F00CF454C068E478EE68
:101A100081E090E0A50191010E946E1369017A01B5
:101A2000B1E0CB1AD108E108F10884E0EFEFCE165F
:101A3000D104E104F104F1F1ECF164E274EF80E02F
:101A400090E0A50194010E946E1369017A0181E082
:101A5000C81AD108E108F10885E09FEFC916D10442
:101A6000E104F10439F130F162E17AE780E090E0DD
:101A7000A50194010E946E1369017A01F1E0CF1A69
:101A8000D108E108F10886E02FEFC216D104E10485
:101A9000F10481F078F0730162018AE0F594E79433
:101AA000D794C7948A95D1F7A1E0CA1AD108E10862
:101AB000F10887E09091B100987F892B8093B10065
:101AC000E1C081E01DCE87E01BCE82E019CE8B8184
:101AD000823711F484E014CE88E012CE8B818237F5
:101AE00011F483E00DCE85E00BCE89E009CE8AE0CB
:101AF00007CE8BE005CE8CE003CE8F3F09F0E4C02B
:101B000087E080935401E3EEF0E014911F3F09F465
:101B1000DBC0113029F150F0123009F440C017FD3C
:101B2000D3C061E087E00E944C011ECF14BC15BCFD
:101B300084B5826084BD85B5816085BDE6EDF0E049
:101B40008491E82FF0E0EE0FFF1FEB53FF4F8591DC
:101B50009491E8EBF0E084918093C50510E0FECE0F
:101B600010928000109281008091810088608093A3
:101B7000810080918100816080938100E6EDF0E03A
:101B80008491E82FF0E0EE0FFF1FEB53FF4F85919C
:101B90009491E8EBF0E084918093C405DFCE10923D
:101BA000B0001092B1008091B00082608093B000CC
:101BB0008091B10081608093B100E6EDF0E0849106
:101BC000E82FF0E0EE0FFF1FEB53FF4F859194914C
:101BD0009093C3058093C205E8EBF0E08491809375
:101BE000C105BCCEEFEFCE16D104E104F10409F03B
:101BF0000CF4DAC068E478EE81E090E0A501910190
:101C00000E946E1369017A01F1E0CF1AD108E10850
:101C1000F10884E0111121CF83E03FEFC316D10416
:101C2000E104F10459F154F162E17AE780E090E0D7
:101C3000A50194010E946E1369017A0191E0C91A0D
:101C4000D108E108F10884E0AFEFCA16D104E1043D
:101C5000F104A1F098F0730162019AE0F594E79421
:101C6000D794C7949A95D1F791E0C91AD108E108A1
:101C7000F10885E003C081E011111CCF95B5987F74
:101C8000892B85BD8E8D9F8DA8A1B9A12FEF3FEF28
:101C9000A901892B8A2B8B2B09F0C4C0113009F4C0
:101CA000CFC0123009F4DEC011110EC0C7BC2093A2
:101CB000CE053093CF054093D0055093D105809148
:101CC0006E00826080936E006E8D7F8D88A199A1D9
:101CD0000E94A201AAA1BBA1A158B44009F01DCE47
:101CE0000E943306BE01685E7F4FCE0101960E94BE
:101CF000D601CE0101960E94BF0785E00E94F50043
:101D0000019709F053C3BE01685E7F4FCE01429632
:101D10000E94D6010E94330660E080E00E94DB064C
:101D200082ED94E00E94830561E081E00E94DB0681
:101D300087EE94E00E94830562E081E00E94DB066A
:101D400087EF94E00E94830563E081E00E94DB0658
:101D500083E095E00E94830501E010E086E00E94A8
:101D6000F500892B09F0A4C084E00E94F5000197DA
:101D700009F08EC00330110509F084C002E010E0C4
:101D8000602F80E00E94DB0680916406982F9160AE
:101D90009093640689600E942D066EE571E080E0F4
:101DA00090E00E94A201DACF82E066CFB12CA12C94
:101DB00060E072E18AE790E0A50191010E946E1354
:101DC00069017A01B1E0CB1AD108E108F10891E08C
:101DD000C114D104E1E0EE06F10484F068E478EE89
:101DE00081E090E0A50191010E946E1369017A01E2
:101DF000F1E0CF1AD108E108F10893E0113009F0C1
:101E000041CF80918100887F892B809381008E8DC6
:101E10009F8DA8A1B9A12FEF3FEFA901892B8A2B94
:101E20008B2B71F09101220F331FACA1BDA10E9439
:101E3000931328EE33E040E050E00E944C132ECF85
:101E4000D0928900C09288002093CA053093CB05B8
:101E50004093CC055093CD0580916F0082608093B4
:101E60006F0032CFC092B3002093C6053093C705F0
:101E70004093C8055093C90580917000826080939B
:101E8000700022CF0230110581F401E010E078CF1C
:101E900083E00E94F500019709F072CF033011052D
:101EA000A1F30230110509F069CF03E010E068CF1B
:101EB0006EE571E080E090E00E94A20180916406EE
:101EC0008E7F8093640688600E942D060130110584
:101ED00009F074C20E943306BE016E5E7F4FCE01D0
:101EE0000C960E94D601BE01645F7F4FCE01019621
:101EF0000E94D601CE0101960E94BF07AE84B12C8C
:101F00008D84912CCC84D12CF0E3CF1AF8EFDF0A2A
:101F10008F85282F30E03F8F2E8F2888312C4988DD
:101F2000512C80916406982F9260909364068A6089
:101F30000E942D0661E087E00E94DB0686E00E9499
:101F4000F5003C01892B09F03EC084E00E94F500B9
:101F50000197E9F46EE571E080E090E00E94A20153
:101F60003FEF431A530A8DE3481651040CF4320133
:101F7000730181012E8D3F8DA601B401C5010E9420
:101F80004F0761E087E00E94DB062301D7CF83E0A3
:101F90000E94F500019791F66EE571E080E090E017
:101FA0000E94A20191E0491A510818F44CE3442E12
:101FB000512C720181012E8D3F8DA601B401C50106
:101FC0000E944F07B7CF61E084E00E94DB066EE518
:101FD00071E080E090E00E94A20186E00E94F5009E
:101FE0003C01892B09F042C084E00E94F500019772
:101FF000E9F46EE571E080E090E00E94A201BFEF9D
:102000002B1A3B0AEDE32E1631040CF43101720158
:1020100083012E8D3F8DA601B401C5010E944F079B
:1020200061E084E00E94DB061301D7CF83E00E94C9
:10203000F500019791F66EE571E080E090E00E9476
:10204000A201F1E02F1A310818F43CE3232E312CC1
:10205000720181012E8D3F8DA601B401C5010E9440
:102060004F0761E084E00E94DB06B7CF61E081E0CA
:102070000E94DB066EE571E080E090E00E94A20124
:1020800086E00E94F5003C01892B09F046C084E0FF
:102090000E94F5000197E1F46EE571E080E090E0C8
:1020A0000E94A2018E8D9F8D0196883191050CF4BE
:1020B0003C01720181019301A601B401C5010E9496
:1020C0004F0761E081E00E94DB067F8E6E8ED8CFE5
:1020D00083E00E94F500019799F66EE571E080E0DB
:1020E00090E00E94A2018E8D9F8D01979F8F8E8F11
:1020F0001816190624F0A8E1B0E0BF8FAE8F720168
:1021000081012E8D3F8DA601B401C5010E944F07AC
:1021100061E081E00E94DB06B3CF60E089E00E94CD
:10212000DB066EE571E080E090E00E94A20186E0AF
:102130000E94F500892B59F584E00E94F500019773
:10214000B9F46EE571E080E090E00E94A201BFEF7B
:10215000CB1ADB0A720181012E8D3F8DA601B401DD
:10216000C5010E944F0760E089E00E94DB06DFCFD7
:1021700083E00E94F5000197D1F66EE571E080E002
:1021800090E00E94A201E1E0CE1AD108E3CF60E026
:1021900084E00E94DB066EE571E080E090E00E9442
:1021A000A20186E00E94F500892B09F045C084E079
:1021B0000E94F5003C010197E9F46EE571E080E0D2
:1021C00090E00E94A2012FEF821A920A3DE083164E
:1021D00091040CF43401720181012E8D3F8DA60112
:1021E000B301C5010E944F0760E084E00E94DB0656
:1021F0004301D7CF83E00E94F500019791F66EE589
:1022000071E080E090E00E94A20181E0881A9108CC
:10221000181419041CF02CE0822E912C72018101FB
:102220002E8D3F8DA601B401C5010E944F0760E0CD
:1022300084E00E94DB06B5CF60E081E00E94DB060F
:102240006EE571E080E090E00E94A20186E00E94CD
:10225000F500892B09F04CC084E00E94F5003C0198
:1022600091E06916710401F56EE571E080E090E09F
:102270000E94A201AFEFAA1ABA0AB601C4010E94D5
:102280000F058A159B050CF03501720181012E8D19
:102290003F8DA601B401C3010E944F0760E081E0B9
:1022A0000E94DB065301D2CF83E00E94F500019724
:1022B00069F66EE571E080E090E00E94A201B1E075
:1022C000AB1AB108B601C4010E940F05A816B906E1
:1022D0000CF45C01720181012E8D3F8DA601B401C9
:1022E000C5010E944F0760E081E00E94DB06AECF8F
:1022F000809164068D7F8093640688600E942D061D
:102300006EE571E080E090E00E94A2010E94330639
:1023100060E080E00E94DB068CE095E00E9483058F
:1023200061E080E00E94DB068CE195E00E9483057D
:1023300001E010E086E00E94F500892BF1F484E0D2
:102340000E94F500019799F46EE571E080E090E05D
:102350000E94A201012B21F361E080E00E94DB06D4
:1023600086E295E00E94830510E000E0E3CF83E081
:102370000E94F5000197F1F6E7CF01301105A1F4B5
:102380008E8DE0EDCE16E7E0DE0620F0F0EDCF1A00
:10239000F7E0DF0AC9828A82AB828C832D824E826B
:1023A000CE0101960E9499040E94330680E090E0DD
:1023B000892B09F4C6C90E940000C3C90230110567
:1023C00099F70E943306BE016E5E7F4FCE010196E3
:1023D0000E94D6010E94330660E080E00E94DB0686
:1023E00080E395E00E9483058091D6059091D70502
:1023F00061E0892B71F580E00E94DB0681E495E0C5
:102400000E94830501E010E086E00E94F500E09064
:10241000D605F090D705892B09F042C084E00E94D0
:10242000F500019751F56EE571E080E090E00E94C3
:10243000A201E114F10499F41093D7050093D60595
:1024400061E080E00E94DB0684E595E00E94830560
:10245000DBCF80E00E94DB068BE495E0D1CFEA94ED
:10246000EF2891F61092D7051092D60561E080E032
:102470000E94DB0681E495E0E9CF83E00E94F5004D
:10248000019711F66EE571E080E090E00E94A201F4
:10249000E114F10489F2EA94EF2809F0B5CFE2CF14
:1024A000EA94EF2809F0C6C00E94330660E080E09D
:1024B0000E94DB068EE595E00E9483056091D405BD
:1024C0007091D5058091D2059091D3050E942A077D
:1024D00080916406982F9260909364068A600E94AF
:1024E0002D0661E084E00E94DB066EE571E080E08D
:1024F00090E00E94A2010CE310E086E00E94F5004B
:10250000892B09F042C084E00E94F500019731F563
:102510006EE571E080E090E00E94A2018091D40518
:102520009091D50501968D3391052CF49093D505A6
:102530008093D40504C01092D5051092D405609103
:10254000D4057091D5058091D2059091D3050E9454
:102550002A0761E084E00E94DB06CFCF83E00E947F
:10256000F500019751F66EE571E080E090E00E9481
:10257000A2018091D4059091D505019797FFD6CF00
:102580001093D5050093D405DACF61E081E00E9475
:10259000DB066EE571E080E090E00E94A20108E1B8
:1025A00010E086E00E94F500892B09F043C084E02A
:1025B0000E94F500019731F56EE571E080E090E052
:1025C0000E94A2018091D2059091D3050196883195
:1025D00091052CF49093D3058093D20504C01092FA
:1025E000D3051092D2056091D4057091D5058091E4
:1025F000D2059091D3050E942A0761E081E00E94F4
:10260000DB06CFCF83E00E94F500019751F66EE51F
:1026100071E080E090E00E94A2018091D20590914B
:10262000D305019718161906ACF21093D305009341
:10263000D205D9CF809164068D7F8093640688602F
:102640000E942D06B1CEFB01DC0102C005900D9267
:1026500041505040D8F70895991B79E004C0991F64
:10266000961708F0961B881F7A95C9F780950895EC
:10267000AA1BBB1B51E107C0AA1FBB1FA617B707A8
:1026800010F0A61BB70B881F991F5A95A9F78095C4
:102690009095BC01CD010895A1E21A2EAA1BBB1B87
:1026A000FD010DC0AA1FBB1FEE1FFF1FA217B3071E
:1026B000E407F50720F0A21BB30BE40BF50B661F34
:1026C000771F881F991F1A9469F7609570958095F8
:1026D00090959B01AC01BD01CF010895052E97FB9C
:1026E0001EF400940E94851357FD07D00E944C13DE
:1026F00007FC03D04EF40C9485135095409530950B
:1027000021953F4F4F4F5F4F08959095809570955D
:1027100061957F4F8F4F9F4F0895EE0FFF1F0590DC
:10272000F491E02D09940E949A13B7FF0895821B3B
:10273000930B0895A29FB001B39FC001A39F700D9A
:10274000811D1124911DB29F700D811D1124911DB9
:102750000895F894FFCF53756E000000000000004C
:1027600000004D6F6E000000000000000000547576
:1027700065000000000000000000576564000000D4
:102780000000000000005468750000000000000018
:102790000000467269000000000000000000536164
:1027A00074000000000000000000FF4A018801B82A
:1027B00001B8010000B801EE010B020B0200000B92
:1027C000024B02EE01EE010000B8018801B80100E1
:1027D000004A018801B801B8010000B801EE010B00
:1027E000020B0200000B024B02EE01EE010000B8EA
:1027F000018801B80100004A018801B801B8010050
:1028000000B8010B024B024B0200004B029302BACC
:1028100002BA02000093024B029302B8010000B812
:1028200001EE010B020B0200004B029302B8010003
:1028300000B8010B02EE01EE0100000B02B801EE40
:10284000010000B801B801B801EE010B020B020053
:10285000000B024B02EE01EE010000B8018801B846
:102860000100004A018801B801B8010000B801EE7A
:10287000010B020B0200000B024B02EE01EE010005
:1028800000B8018801B80100004A018801B801B808
:10289000010000B8010B024B024B0200004B0293F7
:1028A00002BA02BA02000093024B029302B801007E
:1028B00000B801EE010B020B0200004B029302B8BC
:1028C000010000B8010B02EE01EE0100000B02B89E
:1028D00001EE010000930200000000BA02000000B7
:1028E000009302930200001003000093024B0200C9
:1028F0000000004B02000000000B0200000000EE90
:10290000010B020000EE010000B80193020000007C
:1029100000BA0200000000930293020000100300BE
:102920000093024B02000000004B02000000000B6D
:102930000200000000EE010B020000EE010000B8F2
:10294000017D007D00FA007D007D007D007D00FAA4
:10295000007D007D007D007D00FA007D007D007D12
:10296000007D0077017D007D007D00FA007D007D07
:10297000007D007D00FA007D007D007D007D00FA75
:10298000007D007D007D007D0077017D007D007D64
:1029900000FA007D007D007D007D00FA007D007D55
:1029A000007D007D00FA007D007D007D007D007DC2
:1029B00000FA007D007D007D00FA007D007D00FAB8
:1029C000007D00FA007D007D007D00FA007D007D25
:1029D000007D007D0077017701FA007D007D007D9C
:1029E00000FA007D007D007D007D00FA007D007D05
:1029F000007D007D0077017D007D007D00FA007D77
:102A0000007D007D007D00FA007D007D007D007D61
:102A100000FA007D007D007D007D0077017D007D56
:102A2000007D00FA007D007D007D007D00FA007DC4
:102A3000007D007D007D00FA007D007D007D007D31
:102A4000007D00FA007D007D007D00FA007D007DA4
:102A500000FA007D00FA007D007D007D00FA007D17
:102A6000007D007D007D0077017701FA007D007711
:102A700001FA007D0077017D007D007D007D007DF5
:102A8000007D007D007D007701FA007D007701FA6E
:102A9000007D0077017D007D007D007D007D00F4DC
:102AA00001FA007D007701FA007D0077017D007D4D
:102AB000007D007D007D007D007D007D007701FAB6
:102AC000007D007701FA007D0077017D007D007DAB
:102AD000007D007D00F401000000006A043D040C4C
:102AE00005130436042304140400000000ED069FBF
:102AF000000C05D501300028002920005254432045
:102B000063687561206461742074686F6920676907
:102B1000616E002A2A2A2A2A2A2A416C61726D2AA9
:102B20002A2A2A2A2A2A2A002A2A2A2A2A2A2A2A2F
:102B30004D656E752A2A2A2A2A2A2A2A00312E2031
:102B4000446174206E6761792067696F00322E20BE
:102B500042616F207468756300332E2054686F6182
:102B60007400537572653A205945532F4E4F203FDC
:102B70003F00537572653A2059455300537572658D
:102B80003A204E4F2000416C61726D3A204F4E2F1B
:102B90004F4646203F3F004D6F64653A204F464602
:102BA000004D6F64653A204F4E004D6F64653A20CA
:102BB0004F4E20005365742074696D6520616C610F
:042BC000726D3A00F8
:107E0000112484B714BE81FFF0D085E080938100F7
:107E100082E08093C00088E18093C10086E0809377
:107E2000C20080E18093C4008EE0C9D0259A86E02C
:107E300020E33CEF91E0309385002093840096BBD3
:107E4000B09BFECF1D9AA8958150A9F7CC24DD24C4
:107E500088248394B5E0AB2EA1E19A2EF3E0BF2EE7
:107E6000A2D0813461F49FD0082FAFD0023811F036
:107E7000013811F484E001C083E08DD089C08234E0
:107E800011F484E103C0853419F485E0A6D080C0E4
:107E9000853579F488D0E82EFF2485D0082F10E0AE
:107EA000102F00270E291F29000F111F8ED06801E7
:107EB0006FC0863521F484E090D080E0DECF843638
:107EC00009F040C070D06FD0082F6DD080E0C81688
:107ED00080E7D80618F4F601B7BEE895C0E0D1E017
:107EE00062D089930C17E1F7F0E0CF16F0E7DF06D8
:107EF00018F0F601B7BEE89568D007B600FCFDCFD4
:107F0000A601A0E0B1E02C9130E011968C91119780
:107F100090E0982F8827822B932B1296FA010C0160
:107F200087BEE89511244E5F5F4FF1E0A038BF0790
:107F300051F7F601A7BEE89507B600FCFDCF97BE46
:107F4000E89526C08437B1F42ED02DD0F82E2BD052
:107F50003CD0F601EF2C8F010F5F1F4F84911BD097
:107F6000EA94F801C1F70894C11CD11CFA94CF0C13
:107F7000D11C0EC0853739F428D08EE10CD085E9AC
:107F80000AD08FE07ACF813511F488E018D01DD067
:107F900080E101D065CF982F8091C00085FFFCCF94
:107FA0009093C60008958091C00087FFFCCF809118
:107FB000C00084FD01C0A8958091C6000895E0E648
:107FC000F0E098E1908380830895EDDF803219F02E
:107FD00088E0F5DFFFCF84E1DECF1F93182FE3DFCA
:107FE0001150E9F7F2DF1F91089580E0E8DFEE27F6
:047FF000FF270994CA
:027FFE00040479
:00000001FF
