:100000000C9463000C948B000C948B000C948B006C
:100010000C948B000C948B000C948B000C948B0034
:100020000C948B000C948B000C948B000C948B0024
:100030000C948B000C948B000C948B000C948B0014
:100040000C946C050C948B000C943A050C941405DC
:100050000C948B000C948B000C948B000C948B00F4
:100060000C94B6050C948B000000000800020100FF
:100070000003040700000000000000001F1C1F1EFA
:100080001F1E1F1F1E1F1E1F00000000250028002E
:100090002B0000000000240027002A0004040404B0
:1000A0000404040402020202020203030303030322
:1000B00001020408102040800102040810200102FF
:1000C00004081020D50611241FBECFEFD8E0DEBFF4
:1000D000CDBF11E0A0E0B1E0EEE1F3E102C0059098
:1000E0000D92A03AB107D9F723E0A0EAB1E001C030
:1000F0001D92AE31B207E1F710E0C3E6D0E004C0D4
:100100002197FE010E948709C236D107C9F70E94D4
:100110002B070C948D090C94000090E0FC01E05535
:10012000FF4F249184569F4FFC018491882399F0BE
:1001300090E0880F991FFC01EE56FF4FA591B491F6
:10014000FC01E857FF4F859194918FB7F894EC919B
:10015000E22BEC938FBF0895982F20915C0281E0F1
:10016000213208F043C0809138028111FCCF809188
:100170005B0232E030933802909337029FEF909306
:1001800036021092350220933402ABE3B2E0E4E190
:10019000F2E090E0291331C0109213029091130203
:1001A000880F892B8093130280911202813049F5C8
:1001B00010921202809113028093BB008091BC00C8
:1001C00083FDF8CF85EC8093BC00809138028230AB
:1001D000E1F3809136028F3FB1F080913602803298
:1001E000A1F080913602803391F084E010923A02BF
:1001F00010925C021092390208953D9131939F5FF5
:10020000C9CF85EEE0CF80E0F1CF82E0EFCF83E091
:10021000EDCF08950895AF92BF92CF92DF92EF9203
:10022000FF920F931F93CF93DF936C017B018B01A0
:10023000040F151FEB015E01AE18BF08C017D107F0
:1002400059F06991D601ED91FC910190F081E02D7A
:10025000C6010995892B79F7C501DF91CF911F91CF
:100260000F91FF90EF90DF90CF90BF90AF900895E7
:10027000FC01538D448D252F30E0842F90E0821BAC
:10028000930B541710F0CF96089501970895FC0131
:10029000918D828D981761F0A28DAE0FBF2FB11D89
:1002A0005D968C91928D9F5F9F73928F90E00895E1
:1002B0008FEF9FEF0895FC01918D828D981731F09B
:1002C000828DE80FF11D858D90E008958FEF9FEFEF
:1002D0000895FC01918D228D892F90E0805C9F4FC5
:1002E000821B91098F73992708958DE592E00E94F2
:1002F000690121E0892B09F420E0822F089580E034
:1003000090E0892B29F00E94750181110C94000066
:100310000895FC01A48DA80FB92FB11DA35ABF4F9A
:100320002C91848D90E001968F739927848FA689F4
:10033000B7892C93A089B1898C91837080648C9348
:10034000938D848D981306C00288F389E02D8081F7
:100350008F7D80830895EF92FF920F931F93CF9329
:10036000DF93EC0181E0888F9B8D8C8D98131AC0F0
:10037000E889F989808185FF15C09FB7F894EE89D7
:10038000FF896083E889F989808183708064808334
:100390009FBF81E090E0DF91CF911F910F91FF907F
:1003A000EF900895F62E0B8D10E00F5F1F4F0F7327
:1003B0001127E02E8C8D8E110CC00FB607FCFACFE2
:1003C000E889F989808185FFF5CFCE010E948901F6
:1003D000F1CFEB8DEC0FFD2FF11DE35AFF4FF082B3
:1003E0009FB7F8940B8FEA89FB8980818062CFCF19
:1003F000CF93DF93EC01888D8823B9F0AA89BB895C
:10040000E889F9898C9185FD03C0808186FD0DC046
:100410000FB607FCF7CF8C9185FFF2CF808185FF67
:10042000EDCFCE010E948901E9CFDF91CF910895F0
:1004300090E0FC01E859FF4F2491FC01E055FF4F8B
:100440003491FC01E456FF4FE491EE23C9F02223DE
:1004500039F0233001F1A8F4213019F1223029F1CB
:10046000F0E0EE0FFF1FE857FF4FA591B4918FB753
:10047000F894EC91611126C030953E233C938FBFD8
:1004800008952730A9F02830C9F0243049F7809129
:1004900080008F7D03C0809180008F7780938000E3
:1004A000DFCF84B58F7784BDDBCF84B58F7DFBCF65
:1004B0008091B0008F778093B000D2CF8091B00050
:1004C0008F7DF9CF3E2BDACF089585ED8093BC0068
:1004D0008091BC0084FDFCCF1092380208952091D9
:1004E000C001260F3327331F21323105ECF4209150
:1004F0003802FC0190E080E0243069F082E0089549
:10050000A091C0012191AC0140565E4FA40FB52FC0
:10051000B11D2C930196861798F38091C001680F46
:100520006093C00180E0089581E008950895E0910E
:10053000F1018091F001E81730F4F0E0EE50FE4F49
:10054000808190E008958FEF9FEF08959091F101E1
:100550008091F0012FEF3FEF981748F4E92FF0E07A
:10056000EE50FE4F208130E09F5F9093F101C90172
:1005700008958091F0019091F101891B990B0895E4
:10058000CF92DF92EF92FF920F931F93CF93DF935F
:100590007C01CB018A0120913902222389F0EB01F1
:1005A0006B01C40ED51ECC15DD0569F06991D7012C
:1005B000ED91FC910190F081E02DC7010995F3CFF9
:1005C000642F0E946F02C801DF91CF911F910F919C
:1005D000FF90EF90DF90CF900895CF93DF931F921D
:1005E000CDB7DEB76983209139022223F9F020913B
:1005F0005C02203258F021E030E0FC01338322839A
:1006000090E080E00F90DF91CF91089580913A02C1
:10061000E82FF0E0E55CFD4F998190838F5F809338
:100620003A0280935C0281E090E0ECCF61E0CE0181
:1006300001960E946F02F7CF90E080E008958F92BC
:100640009F92AF92BF920F931F93CF93DF93CDB73B
:10065000DEB7A1970FB6F894DEBF0FBECDBF19A2CB
:10066000423008F44AE08E010F5D1F4F842E912C1A
:10067000B12CA12CA50194010E946509E62FB901B6
:10068000CA01EA3044F5E05DD801EE938D01232BD9
:10069000242B252B79F790E080E0109769F0FD017D
:1006A00001900020E9F73197AF014A1B5B0BBD01B8
:1006B00086E093E00E940B01A1960FB6F894DEBF8E
:1006C0000FBECDBFDF91CF911F910F91BF90AF9023
:1006D0009F908F900895E95CD7CFFC010190002096
:1006E000E9F73197AF01481B590BBC0186E093E055
:1006F0000C940B01909138029111FCCF282F91E0BE
:1007000090933802909337023FEF30933602109265
:100710003502380F309334029093130290911302F4
:10072000906D9093130290911202913019F51092EE
:100730001202909113029093BB009091BC0093FD24
:10074000F8CF95EC9093BC00909138029130E1F392
:1007500090913502981710F420913502A4E1B2E08F
:10076000E2EFF1E080E0821307C01092F101809384
:10077000F001089595EEE6CF9D9191938F5FF3CFB1
:10078000682F70E090E080E04AE00C941F03CF9364
:10079000DF93EC0160E08E810E94180261E08E819F
:1007A0000E94180260E08E810E9418028BE891E09E
:1007B0000197F1F7DF91CF910895CF92DF92EF92F9
:1007C000FF920F931F93CF93DF936C017C0187E01F
:1007D000E80EF11CD0E0C0E0062F10E0B8010C2EAE
:1007E00002C0759567950A94E2F76170F7018191EF
:1007F0007F010E9418022196C430D10579F7C60105
:10080000DF91CF911F910F91FF90EF90DF90CF90EC
:100810000C94C703CF92DF92EF92FF920F931F9336
:10082000CF93DF93EC01F62E642F8C810E94180287
:100830008D818F3F19F060E00E9418020F2D10E0AB
:100840008F8584FF25C06E0187E0C80ED11CF12C76
:10085000E12CB8010E2C02C0759567950A94E2F759
:100860006170F60181916F010E941802FFEFEF1A8B
:10087000FF0A88E0E816F10461F7CE01DF91CF911D
:100880001F910F91FF90EF90DF90CF900C94C703D2
:10089000B80184E0759567958A95E1F7CE010E94CD
:1008A000DD036F2DCE01DF91CF911F910F91FF904E
:1008B000EF90DF90CF900C94DD0340E0682F86E04E
:1008C00093E00C940A04CF93DF93823029F4909143
:1008D00015039860909315038093190310921A03DF
:1008E00080E480931B0380E180931C0380E5809368
:1008F0001D0380910A030E948D0080910B038F3F9E
:1009000011F00E948D0080910C030E948D00C6E0C2
:10091000D3E09E01265033408091150384FD0AC028
:1009200084E090E02196281739073CF48E810E94DC
:100930008D00EFCF88E090E0F5CF8BE39DE001974D
:10094000F1F760E080910A030E94180260E0809154
:100950000C030E94180280910B038F3F19F060E096
:100960000E9418028091150384FD39C063E086E07F
:1009700093E00E94DD03CBE4D6E4CE010197F1F7CA
:1009800063E086E093E00E94DD032197F1F763E0E6
:1009900086E093E00E94DD0383E592E00197F1F7A2
:1009A00062E086E093E00E94DD038091150380629F
:1009B0000E945D0484E0809316038CE00E945D0435
:1009C00081E00E945D048BE39FE10197F1F782E0F3
:1009D0008093170386E0DF91CF910C945D048062D1
:1009E0000E945D048BE496E40197F1F78091150372
:1009F00080620E945D0483E592E00197F1F78091A7
:100A0000150380620E945D04D0CF41E00E940A0479
:100A100081E090E0089541E0682F86E093E00E9435
:100A20000A0481E090E008951F920F920FB60F9292
:100A300011242F933F934F935F936F937F938F93E3
:100A40009F93AF93BF93EF93FF938DE592E00E9446
:100A50008901FF91EF91BF91AF919F918F917F910C
:100A60006F915F914F913F912F910F900FBE0F901B
:100A70001F9018951F920F920FB60F9211242F936B
:100A80008F939F93EF93FF93E0916D02F0916E022D
:100A90008081E0917302F091740282FD1BC090810D
:100AA000809176028F5F8F7320917702821741F0D9
:100AB000E0917602F0E0E35AFD4F958F8093760245
:100AC000FF91EF919F918F912F910F900FBE0F90FB
:100AD0001F9018958081F4CF1F920F920FB60F923E
:100AE00011242F933F938F939F93AF93BF93809144
:100AF000E8019091E901A091EA01B091EB013091F8
:100B0000E70123E0230F2D3758F50196A11DB11DF4
:100B10002093E7018093E8019093E901A093EA0113
:100B2000B093EB018091E3019091E401A091E50184
:100B3000B091E6010196A11DB11D8093E301909350
:100B4000E401A093E501B093E601BF91AF919F91BD
:100B50008F913F912F910F900FBE0F901F9018957E
:100B600026E8230F0296A11DB11DD2CF1F920F922E
:100B70000FB60F9211242F933F934F935F936F9370
:100B80007F938F939F93AF93BF93EF93FF93809146
:100B9000B900887F803609F44AC0F0F5883209F43C
:100BA000A7C018F5803109F49BC0B8F4882309F474
:100BB000F9C0883009F494C0FF91EF91BF91AF91D3
:100BC0009F918F917F916F915F914F913F912F9165
:100BD0000F900FBE0F901F901895883109F488C0B0
:100BE000803251F78093360214C0803409F49DC0DE
:100BF00040F48033B9F38833F9F68093360285ECFC
:100C0000B0C0803509F485C0883509F496C08834B1
:100C100099F60E946502D0CF883909F48CC038F566
:100C2000883729F050F4883611F0803729F683E0B0
:100C3000809338021092E20157C0883809F47BC0D3
:100C4000803919F0803809F0B7CF8091E201803205
:100C500008F071C0E091E20181E08E0F8093E20123
:100C60008091BB00F0E0EE53FE4F80833DC0803B9F
:100C700039F0E0F4803A09F479C0883A09F09CCF61
:100C800084E0809338021092C1011092C001E0917B
:100C9000EE01F091EF0109958091C00181110FC023
:100CA00081E08093C0011092A00109C0803C09F44A
:100CB000A6CF883C09F4A3CF883B09F07DCFE09113
:100CC000C10181E08E0F8093C101F0E0E056FE4F3C
:100CD00080818093BB009091C1018091C00129C0A7
:100CE000809113028093BB0085EC8093BC0064CF9D
:100CF0009091350280913402981758F5E0913502B1
:100D000081E08E0F80933502F0E0EC5EFD4F808134
:100D1000E9CFE091350281E08E0F8093350280911A
:100D2000BB00F0E0EC5EFD4F808390913502809136
:100D300034029817C8F285E8D8CFE091350281E0F7
:100D40008E0F809335028091BB00F0E0EC5EFD4F8A
:100D500080838091370281115CCF81E08093120201
:100D600084EA8093BC001092380226CF85EC8093F1
:100D7000BC00109238028091E201803230F4E091A0
:100D8000E201F0E0EE53FE4F10826091E20170E06C
:100D9000E091EC01F091ED0182EC91E00995109267
:100DA000E2010ACF1092360234CFEDE5F2E0138271
:100DB000128288EE93E0A0E0B0E084839583A6835E
:100DC000B78328E531E03183208325EC30E0358797
:100DD000248724EC30E03787268720EC30E0318B05
:100DE000208B21EC30E0338B228B22EC30E0358BF2
:100DF000248B26EC30E0378B268B118E128E138ECF
:100E0000148EEAEFF2E01382128284839583A68324
:100E1000B7838AE691E091838083E6E0F3E0138272
:100E200012828CE791E09183808387E084838FEF47
:100E3000858386E0868385E0878384E0808783E0FE
:100E4000818782E082871386148615861686178628
:100E500081E00C946304789484B5826084BD84B589
:100E6000816084BD85B5826085BD85B5816085BDA5
:100E700080916E00816080936E001092810080915D
:100E800081008260809381008091810081608093E5
:100E90008100809180008160809380008091B1000A
:100EA00084608093B1008091B00081608093B00035
:100EB00080917A00846080937A0080917A008260C9
:100EC00080937A0080917A00816080937A0080918B
:100ED0007A00806880937A001092C100E0916D02E0
:100EE000F0916E0282E08083E0916902F0916A02E3
:100EF0001082E0916B02F0916C028FEC8083109273
:100F00007502E0917102F091720286E08083E091B7
:100F10006F02F0917002808180618083E0916F02A6
:100F2000F0917002808188608083E0916F02F0917F
:100F30007002808180688083E0916F02F09170027E
:100F400080818F7D808382E00E9463041092F10192
:100F50001092F00110923A0210925C021092380244
:100F6000C1E0C09337021092120261E082E10E9458
:100F7000180261E083E10E9418028091B9008E7F1F
:100F80008093B9008091B9008D7F8093B90088E487
:100F90008093B80085E48093BC0089E091E0909351
:100FA000EF018093EE018AE091E09093ED01809350
:100FB000EC01C093390288E680935B0210923A02FA
:100FC00010925C0260E08AEF92E00E94ED0281E004
:100FD0000E94AC0081E090E00E947A038AEF92E0E8
:100FE0000E94A60287FF04C084E891E00E946D037E
:100FF00081E08093390288E680935B0210923A0286
:1010000010925C0260E08AEF92E00E94ED0260E0E4
:101010008AEF92E00E94ED0269E48AEF92E00E947A
:10102000ED0261E28AEF92E00E94ED0260E08AEF59
:1010300092E00E94ED0268E18AEF92E00E94ED02E8
:1010400062E18AEF92E00E94ED0269E18AEF92E0AC
:101050000E94ED0281E00E94AC0055245394B8E652
:101060004B2ECDE6AC2EBB24B394DCE03D2E10E03D
:10107000812E10E0912E5092390240925B02109224
:101080003A0210925C0260E08AEF92E00E94ED0268
:1010900081E00E94AC0087E090E00E947A038AEF32
:1010A00092E00E94A6028F77282F30E054E0359519
:1010B00027955A95E1F7922F990F990F022F091B47
:1010C000000F080F8AEF92E00E94A6029C0164E0E4
:1010D000359527956A95E1F72F703327922F990F51
:1010E000990F722E791A770C780E8AEF92E00E948F
:1010F000A6029C0174E0359527957A95E1F72F704B
:101100003327922F990F990F622E691A660C680E79
:101110008AEF92E00E94A6028AEF92E00E94A60265
:101120009C01E4E035952795EA95E1F72F70332788
:10113000922F990F990F122F191B110F180F8AEF69
:1011400092E00E94A6029C01F4E035952795FA955D
:10115000E1F72F703327922F990F990FD22FD91BB8
:10116000DD0FD80F8AEF92E00E94A6029C01A4E056
:1011700035952795AA95E1F72F703327922F990F70
:10118000990FC22FC91BCC0FC80FCC2ED12C7601C2
:1011900080E3E81A88EFF80AE0911903E230A8F535
:1011A000E150F0E0EA5FFC4F848980680E945D04B2
:1011B000862D0E94C0038AE30E940B05872D0E94A2
:1011C000C0038AE30E940B05802F0E94C00388E9B8
:1011D00091E00E946D03E1E0809119038111E0E04C
:1011E000E195F0E0EA5FFC4F848980680E945D042D
:1011F000212F30E0ECE7F0E081E08D1740F494918E
:10120000290F311D8F5F3196F8CFE1E0CACFD3307F
:1012100020F0C37011F42F5F3F4FC7018D5C9740E2
:101220009695879596958795CA9CA001CB9C500D65
:10123000DA9C500D1124840F951F0596820F931F81
:1012400067E070E00E945109389E9001399E300D90
:101250001124C90180509F4F0E946D038CE991E0D9
:101260000E946D03812F0E94C0038FE20E940B0534
:101270008D2F0E94C0038FE20E940B05B701FF0C67
:10128000880B990B4AE00E941F038114910409F412
:10129000F2CE0E947501882309F4EDCE0E94000071
:1012A000EACEAA1BBB1B51E107C0AA1FBB1FA61792
:1012B000B70710F0A61BB70B881F991F5A95A9F7FF
:1012C00080959095BC01CD010895A1E21A2EAA1B2C
:1012D000BB1BFD010DC0AA1FBB1FEE1FFF1FA217E6
:1012E000B307E407F50720F0A21BB30BE40BF50BE3
:1012F000661F771F881F991F1A9469F7609570956C
:10130000809590959B01AC01BD01CF010895EE0F32
:0E131000FF1F0590F491E02D0994F894FFCF93
:10131E0053756E0000000000000000004D6F6E005F
:10132E000000000000000000547565000000000081
:10133E00000000005765640000000000000000007F
:10134E00546875000000000000000000467269003D
:10135E000000000000000000536174000000000057
:10136E000000000000000000AB010B013801F80185
:10137E00690147015B0100000000ED02C0021C0381
:10138E009602B902A60297020000000005050B01A5
:10139E001C036402525443206973204E4F54207232
:1013AE00756E6E696E67210020202000202C0000D3
:00000001FF
