:020000040000FA
:100000000C945E000C9486000C9486000C94860080
:100010000C9486000C9486000C9486000C94860048
:100020000C9486000C9486000C9486000C94860038
:100030000C9486000C9486000C9486000C94860028
:100040000C9485030C9486000C9453030C942D039C
:100050000C9486000C9486000C9486000C94860008
:100060000C9486000C948600000000080002010039
:100070000003040700000000000000000000000072
:10008000250028002B0000000000240027002A0083
:10009000040404040404040402020202020203032E
:1000A0000303030301020408102040800102040836
:1000B0001020010204081020CF03BC0511241FBE2C
:1000C000CFEFD8E0DEBFCDBF21E0A6E2B1E001C0B6
:1000D0001D92A93DB207E1F711E0A0E0B1E0E8EF21
:1000E000FFE002C005900D92A632B107D9F710E0EB
:1000F000CDE5D0E004C02197FE010E94F705CC3584
:10010000D107C9F70E9408040C94EF070C94000073
:1001100090E0FC01EC55FF4F249180579F4FFC016C
:100120008491882399F090E0880F991FFC01EA5789
:10013000FF4FA591B491FC01E458FF4F8591949134
:100140008FB7F894EC91E22BEC938FBF0895AF92A8
:10015000BF92CF92DF92EF92FF920F931F93CF93B4
:10016000DF936C017B018B01040F151FEB015E0116
:10017000AE18BF08C017D10759F06991D601ED91AB
:10018000FC910190F081E02DC6010995892B79F74A
:10019000C501DF91CF911F910F91FF90EF90DF90FC
:1001A000CF90BF90AF900895FC01538D448D252FC3
:1001B00030E0842F90E0821B930B541710F0CF9601
:1001C000089501970895FC01918D828D981761F033
:1001D000A28DAE0FBF2FB11D5D968C91928D9F5F4A
:1001E0009F73928F90E008958FEF9FEF0895FC0129
:1001F000918D828D981731F0828DE80FF11D858DDC
:1002000090E008958FEF9FEF0895FC01918D228D6E
:10021000892F90E0805C9F4F821B91098F739927F3
:10022000089582E391E00E94050121E0892B09F401
:1002300020E0822F089580E090E0892B29F00E9431
:10024000110181110C9400000895FC01A48DA80FE8
:10025000B92FB11DA35ABF4F2C91848D90E0019608
:100260008F739927848FA689B7892C93A089B18928
:100270008C91837080648C93938D848D981306C0C9
:100280000288F389E02D80818F7D80830895EF922D
:10029000FF920F931F93CF93DF93EC0181E0888F40
:1002A0009B8D8C8D98131AC0E889F989808185FF10
:1002B00015C09FB7F894EE89FF896083E889F989B2
:1002C00080818370806480839FBF81E090E0DF91B4
:1002D000CF911F910F91FF90EF900895F62E0B8D07
:1002E00010E00F5F1F4F0F731127E02E8C8D8E11C2
:1002F0000CC00FB607FCFACFE889F989808185FF29
:10030000F5CFCE010E942501F1CFEB8DEC0FFD2F33
:10031000F11DE35AFF4FF0829FB7F8940B8FEA89E3
:10032000FB8980818062CFCFCF93DF93EC01888DF2
:100330008823B9F0AA89BB89E889F9898C9185FD60
:1003400003C0808186FD0DC00FB607FCF7CF8C91EE
:1003500085FFF2CF808185FFEDCFCE010E94250180
:10036000E9CFDF91CF91089590E0FC01E859FF4F6C
:100370002491FC01EC55FF4F3491FC01E057FF4FF5
:10038000E491EE23C9F0222339F0233001F1A8F4DF
:10039000213019F1223029F1F0E0EE0FFF1FE4586F
:1003A000FF4FA591B4918FB7F894EC91611126C0DD
:1003B00030953E233C938FBF08952730A9F0283015
:1003C000C9F0243049F7809180008F7D03C080916F
:1003D00080008F7780938000DFCF84B58F7784BDD6
:1003E000DBCF84B58F7DFBCF8091B0008F7780937A
:1003F000B000D2CF8091B0008F7DF9CF3E2BDACF05
:100400003FB7F89480912B0190912C01A0912D0180
:10041000B0912E0126B5A89B05C02F3F19F001967B
:10042000A11DB11D3FBFBA2FA92F982F8827BC014E
:10043000CD01620F711D811D911D42E0660F771F76
:10044000881F991F4A95D1F708958F929F92AF9276
:10045000BF92CF92DF92EF92FF920E9400024B0177
:100460005C018AE0C82ED12CE12CF12C0E94000204
:10047000681979098A099B09683E734081059105CD
:10048000A8F321E0C21AD108E108F10888EE880E2D
:1004900083E0981EA11CB11CC114D104E104F10435
:1004A00029F7FF90EF90DF90CF90BF90AF909F9093
:1004B0008F900895CF93DF93C82F807F85B985B142
:1004C00090E0959587959595879585B960E088E04A
:1004D0000E94B40161E089E00E94B4010E942502FB
:1004E00060E089E00E94B4010E94250280E1C80218
:1004F000E0011124C5B985B190E095958795959552
:10050000879585B960E088E00E94B40161E089E0E8
:100510000E94B4010E94250260E089E00E94B401BB
:10052000DF91CF910C9425020F931F93CF93DF930C
:10053000EC0188819981009759F02A813B81261727
:10054000370730F081E0DF91CF911F910F9108952F
:100550008B016F5F7F4F0E942207009759F09983AC
:1005600088831B830A832C813D81232B59F7FC014F
:100570001082E8CF80E0E7CFEF92FF920F931F93B6
:10058000CF93DF936115710541F480E0DF91CF9146
:100590001F910F91FF90EF90089541155105B1F013
:1005A0007B01EC010C811D81040F151FB8010E9415
:1005B0009402882351F3288139818C819D81B70170
:1005C000820F931F0E94E8071D830C8381E0DECF1A
:1005D000CF93DF93EC0188819981009711F00E94FD
:1005E0009906198218821D821C821B821A82DF9151
:1005F000CF910895EF92FF920F931F93CF93DF93C4
:100600008C017B01EB0109900020E9F72197C61BC3
:10061000D70BBE010E949402811109C0C801DF916D
:10062000CF911F910F91FF90EF900C94E802F80189
:10063000D583C483B70180819181DF91CF911F91D0
:100640000F91FF90EF900C94E807FC01808191815D
:10065000009711F00C94990608951F920F920FB60F
:100660000F9211242F933F934F935F936F937F9338
:100670008F939F93AF93BF93EF93FF9382E391E0A8
:100680000E942501FF91EF91BF91AF919F918F91B2
:100690007F916F915F914F913F912F910F900FBE7E
:1006A0000F901F9018951F920F920FB60F92112462
:1006B0002F938F939F93EF93FF93E0914201F091DB
:1006C00043018081E0914801F091490182FD1BC006
:1006D000908180914B018F5F8F7320914C01821725
:1006E00041F0E0914B01F0E0EE5CFE4F958F80937E
:1006F0004B01FF91EF919F918F912F910F900FBE22
:100700000F901F9018958081F4CF1F920F920FB613
:100710000F9211242F933F938F939F93AF93BF9387
:100720008091270190912801A0912901B0912A017F
:100730003091260123E0230F2D3758F50196A11D96
:10074000B11D209326018093270190932801A09347
:100750002901B0932A0180912B0190912C01A09145
:100760002D01B0912E010196A11DB11D80932B0189
:1007700090932C01A0932D01B0932E01BF91AF91C6
:100780009F918F913F912F910F900FBE0F901F90CF
:10079000189526E8230F0296A11DB11DD2CFE2E3E2
:1007A000F1E01382128288EE93E0A0E0B0E084834F
:1007B0009583A683B7838AE091E09183808385EC5B
:1007C00090E09587848784EC90E09787868780EC1B
:1007D00090E0918B808B81EC90E0938B828B82EC0C
:1007E00090E0958B848B86EC90E0978B868B118EB6
:1007F000128E138E148EEFECF1E0118210821382B0
:1008000012821582148262E271E0CF010C94FA0226
:10081000CF93DF93CDB7DEB72E970FB6F894DEBF38
:100820000FBECDBF789484B5826084BD84B58160ED
:1008300084BD85B5826085BD85B5816085BD8091AB
:100840006E00816080936E00109281008091810023
:10085000826080938100809181008160809381001B
:10086000809180008160809380008091B1008460DD
:100870008093B1008091B00081608093B00080913E
:100880007A00846080937A0080917A0082608093FD
:100890007A0080917A00816080937A0080917A005A
:1008A000806880937A001092C10088E00E948800DE
:1008B00089E00E948800E0914201F091430182E0CA
:1008C0008083E0913E01F0913F011082E091400170
:1008D000F09141018FEC808310924A01E091460132
:1008E000F091470186E08083E0914401F091450159
:1008F000808180618083E0914401F0914501808195
:1009000088608083E0914401F09145018081806896
:100910008083E0914401F091450180818F7D808347
:100920004FEDB42E50E0E52E50E0F52ECC24CA94C5
:10093000DC2C1092300110922F0182E391E00E9492
:100940000501181619067CF582E391E00E94E30088
:1009500089831A8241E050E0BE016F5F7F4F8FECC8
:1009600091E00E94BC028091D3019091D401892B27
:1009700031F0E091CF01F091D001309721F4109245
:100980003101E1E3F1E080818A3021F4D09230013D
:10099000C0922F0180912F01909130010196909388
:1009A000300180932F0182E00E945A0288E20E9467
:1009B0005A028EE00E945A0281E00E945A0280E8A8
:1009C0000E945A0218861F821A8619861C861B8668
:1009D00062E271E0CE0107960E94FA021A82198241
:1009E0001C821B821E821D8268E171E0CE0101968D
:1009F0000E94FA024091D3015091D4016091CF013D
:100A00007091D001CE0101960E94BC02811104C0F8
:100A1000CE0101960E94E802BD861E8641E050E0AC
:100A2000BE01635F7F4FCE0101960E94BC0281111F
:100A300004C0CE0101960E94E80241E050E063E26A
:100A400071E0CE0101960E94BC02811104C0CE016A
:100A500001960E94E80209811A810115110549F0E9
:100A60008D809E80B401CE0107960E949402811170
:100A700063C0CE0107960E94E802CE0101960E9453
:100A8000250310E000E08B859C850817190728F4E2
:100A9000EF81F885309709F057C010923101E1E3FA
:100AA000F1E02081222309F455C00817190728F422
:100AB000EF81F885309709F04AC010923101E1E3E7
:100AC000F1E0A0808A2D807F85B985B190E0959571
:100AD00087959595879585B961E088E00E94B40176
:100AE00061E089E00E94B4010E94250260E089E093
:100AF0000E94B4010E9425022A2D30E12302C00188
:100B0000112485B985B190E0959587959595879540
:100B100085B961E088E00E94B40161E089E00E944B
:100B2000B4010E94250260E089E00E94B4010E94A5
:100B300025020F5F1F4FA7CF9C868B86B8018F8140
:100B400098850E94E80799CFE00FF11FAACFE00F28
:100B5000F11FB7CFCE0107960E9425030E94250200
:100B6000E114F10409F4E5CE0E941101882309F48F
:100B7000E0CE0E940000DDCE8FEC91E00C942503C6
:100B80002F923F924F925F926F927F928F929F929D
:100B9000AF92BF92CF92DF92EF92FF920F931F938B
:100BA000CF93DF93CDB7DEB7CA1BDB0B0FB6F8943C
:100BB000DEBF0FBECDBF09942A88398848885F847C
:100BC0006E847D848C849B84AA84B984C884DF80ED
:100BD000EE80FD800C811B81AA81B981CE0FD11DD1
:100BE0000FB6F894DEBF0FBECDBFED010895EE0F36
:100BF000FF1F0590F491E02D09940F931F93CF935D
:100C0000DF938230910510F482E090E0E091D7010B
:100C1000F091D80130E020E0B0E0A0E0309799F406
:100C20002115310509F44AC0281B390B2430310540
:100C3000D8F58A819B816115710589F1FB01938348
:100C40008283FE0111C040815181028113814817C6
:100C50005907E0F04817590799F4109761F0129678
:100C60000C93129713961C933296CF01DF91CF917C
:100C70001F910F9108950093D7011093D801F4CFDD
:100C80002115310551F04217530738F0A901DB0156
:100C90009A01BD01DF01F801C1CFEF01F9CF9093B7
:100CA000D8018093D701CDCFFE01E20FF31F8193CE
:100CB00091932250310939832883D7CF2091D501D0
:100CC0003091D601232B41F4209102013091030190
:100CD0003093D6012093D50120910001309101017C
:100CE0002115310541F42DB73EB7409104015091D3
:100CF0000501241B350BE091D501F091D601E217D7
:100D0000F307A0F42E1B3F0B2817390778F0AC012E
:100D10004E5F5F4F2417350748F04E0F5F1F50930B
:100D2000D6014093D501819391939FCFF0E0E0E00D
:100D30009CCFCF93DF930097E9F0FC0132971382A9
:100D40001282A091D701B091D801ED0130E020E0EE
:100D50001097A1F420813181820F931F2091D5013A
:100D60003091D6012817390709F061C0F093D601F8
:100D7000E093D501DF91CF910895EA01CE17DF0707
:100D8000E8F54A815B819E0141155105B1F7E90102
:100D9000FB83EA8349915991C40FD51FEC17FD07D6
:100DA00061F4808191810296840F951FE9019983F6
:100DB0008883828193819B838A83F0E0E0E01296AE
:100DC0008D919C9113970097B9F52D913C911197B6
:100DD000CD010296820F931F2091D5013091D6014B
:100DE0002817390739F6309751F51092D80110922B
:100DF000D701B093D601A093D501BCCFD383C283D2
:100E000040815181840F951FC817D90761F44E5F47
:100E10005F4F88819981480F591F518340838A8190
:100E20009B81938382832115310509F0B0CFF09324
:100E3000D801E093D7019ECFFD01DC01C0CF138222
:100E40001282D7CFB0E0A0E0E8E2F7E00C94C20550
:100E50008C01009751F4CB010E94FD058C01C80163
:100E6000CDB7DEB7E0E10C94DE05FC01E60FF71F1D
:100E70009C0122503109E217F30708F49DC0D90103
:100E8000CD91DC911197C617D70798F0C530D105E1
:100E900030F3CE0104978617970708F3C61BD70BCC
:100EA0002297C193D1936D937C93CF010E949906B1
:100EB000D6CF5B01AC1ABD0A4C018C0E9D1EA091D1
:100EC000D701B091D801512C412CF12CE12C109775
:100ED00031F58091D5019091D6018815990509F0D9
:100EE0005CC04616570608F058C0809100019091EA
:100EF0000101009741F48DB79EB7409104015091D4
:100F00000501841B950BE817F90708F055C0F0930D
:100F1000D601E093D501F90171836083A0CF8D9153
:100F20009C91119712966C90129713967C90139740
:100F3000A815B90559F56C0142E0C40ED11CCA14BC
:100F4000DB0420F1AC014A195B09DA01129615970E
:100F500080F06282738251834083D9016D937C93C8
:100F6000E114F10471F0D7011396FC93EE931297FC
:100F700076CF22968C0F9D1FF90191838083F30118
:100F8000EFCFF093D801E093D70169CF4816590607
:100F900008F42C017D01D3019ACFCB010E94FD05FD
:100FA0007C01009749F0AE01B8010E94DF07C8013B
:100FB0000E949906870153CF10E000E050CFFB015B
:100FC000DC0102C001900D9241505040D8F70895C5
:100FD000FB01DC0101900D920020E1F7089510E083
:100FE000CDE5D0E004C0FE010E94F7052196CE3584
:100FF000D107C9F7F894FFCF0000D90180000000A5
:1010000000004701A700D40094010501E300F700A8
:0E1010004E6869657420646F3A20004300004A
:107E0000112484B714BE81FFF0D085E080938100F7
:107E100082E08093C00088E18093C10086E0809377
:107E2000C20080E18093C4008EE0C9D0259A86E02C
:107E300020E33CEF91E0309385002093840096BBD3
:107E4000B09BFECF1D9AA8958150A9F7CC24DD24C4
:107E500088248394B5E0AB2EA1E19A2EF3E0BF2EE7
:107E6000A2D0813461F49FD0082FAFD0023811F036
:107E7000013811F484E001C083E08DD089C08234E0
:107E800011F484E103C0853419F485E0A6D080C0E4
:107E9000853579F488D0E82EFF2485D0082F10E0AE
:107EA000102F00270E291F29000F111F8ED06801E7
:107EB0006FC0863521F484E090D080E0DECF843638
:107EC00009F040C070D06FD0082F6DD080E0C81688
:107ED00080E7D80618F4F601B7BEE895C0E0D1E017
:107EE00062D089930C17E1F7F0E0CF16F0E7DF06D8
:107EF00018F0F601B7BEE89568D007B600FCFDCFD4
:107F0000A601A0E0B1E02C9130E011968C91119780
:107F100090E0982F8827822B932B1296FA010C0160
:107F200087BEE89511244E5F5F4FF1E0A038BF0790
:107F300051F7F601A7BEE89507B600FCFDCF97BE46
:107F4000E89526C08437B1F42ED02DD0F82E2BD052
:107F50003CD0F601EF2C8F010F5F1F4F84911BD097
:107F6000EA94F801C1F70894C11CD11CFA94CF0C13
:107F7000D11C0EC0853739F428D08EE10CD085E9AC
:107F80000AD08FE07ACF813511F488E018D01DD067
:107F900080E101D065CF982F8091C00085FFFCCF94
:107FA0009093C60008958091C00087FFFCCF809118
:107FB000C00084FD01C0A8958091C6000895E0E648
:107FC000F0E098E1908380830895EDDF803219F02E
:107FD00088E0F5DFFFCF84E1DECF1F93182FE3DFCA
:107FE0001150E9F7F2DF1F91089580E0E8DFEE27F6
:047FF000FF270994CA
:027FFE00040479
:00000001FF
