:100000000C945C000C9479000C9479000C947900A9
:100010000C9479000C9479000C9479000C9479007C
:100020000C9479000C9479000C9479000C9479006C
:100030000C9479000C9479000C9479000C9479005C
:100040000C940B010C9479000C9479000C947900B9
:100050000C9479000C9479000C9479000C9479003C
:100060000C9479000C947900000000080002010053
:100070000003040700000000000000000000000072
:10008000250028002B0000000000240027002A0083
:10009000040404040404040402020202020203032E
:1000A0000303030301020408102040800102040836
:1000B000102001020408102011241FBECFEFD8E049
:1000C000DEBFCDBF12E0A0E0B1E0E8E6F4E002C0A0
:1000D00005900D92A038B107D9F722E0A0E8B2E070
:1000E00001C01D92A739B207E1F70E9455010C9497
:1000F00032020C94000090E0FC01EC55FF4F24917B
:1001000080579F4FFC018491882399F090E0880FDD
:10011000991FFC01EA57FF4FA591B491FC01E458E7
:10012000FF4F859194918FB7F894EC91E22BEC936B
:100130008FBF089590E0FC01E859FF4F2491FC0126
:10014000EC55FF4F3491FC01E057FF4FE491EE2353
:10015000C9F0222339F0233001F1A8F4213019F13C
:10016000223029F1F0E0EE0FFF1FE458FF4FA59178
:10017000B4918FB7F894EC91611126C030953E236D
:100180003C938FBF08952730A9F02830C9F0243060
:1001900049F7809180008F7D03C0809180008F7728
:1001A00080938000DFCF84B58F7784BDDBCF84B5AB
:1001B0008F7DFBCF8091B0008F778093B000D2CF3E
:1001C0008091B0008F7DF9CF3E2BDACF3FB7F89406
:1001D0008091850290918602A0918702B091880259
:1001E00026B5A89B05C02F3F19F00196A11DB11D92
:1001F0003FBFBA2FA92F982F8827BC01CD01620FCE
:10020000711D811D911D42E0660F771F881F991F88
:100210004A95D1F708951F920F920FB60F921124AD
:100220002F933F938F939F93AF93BF9380918102BE
:1002300090918202A0918302B09184023091800259
:1002400023E0230F2D3758F50196A11DB11D2093F2
:1002500080028093810290938202A0938302B093E4
:1002600084028091850290918602A0918702B091CC
:1002700088020196A11DB11D80938502909386028C
:10028000A0938702B0938802BF91AF919F918F9105
:100290003F912F910F900FBE0F901F90189526E859
:1002A000230F0296A11DB11DD2CF789484B5826030
:1002B00084BD84B5816084BD85B5826085BD85B50A
:1002C000816085BD80916E00816080936E00109288
:1002D0008100809181008260809381008091810003
:1002E0008160809381008091800081608093800094
:1002F0008091B10084608093B1008091B0008160F2
:100300008093B00080917A00846080937A0080911D
:100310007A00826080937A0080917A008160809375
:100320007A0080917A00806880937A001092C100F0
:1003300080E00E947B0081E00E947B0082E00E94BE
:100340007B0083E00E947B0084E00E947B0085E0CC
:100350000E947B0086E00E947B0087E00E947B0079
:1003600020E0622E20E0722E00E011E09EE0E92EF7
:10037000F12CE80188E0C82ED12C68813A808B816D
:1003800030929502809396024C808D814092930228
:10039000809394025E808F815092910280939202AA
:1003A0008884898580928F02809390029A848B85BD
:1003B00090928D0280938E02AC848D85A0928B02E8
:1003C00080938C02BE848F85B092890280938A02CA
:1003D00080E00E949A00632D81E00E949A00642DC3
:1003E00082E00E949A00652D83E00E949A00682DA9
:1003F00084E00E949A00692D85E00E949A006A2D8F
:1004000086E00E949A006B2D87E00E949A000E946D
:10041000E6004B015C010E94E600681979098A092F
:100420009B09683E734081059105A8F321E0C21A3B
:10043000D108E096C114D10409F09FCF81E0E81AF9
:10044000F10809F096CF0E5F1F4F82E291E080170E
:10045000910709F08BCF6114710409F485CF0E94D4
:08046000000082CFF894FFCFE9
:100468000000000000000000000000000000000084
:100478000100000000000000000000000000000073
:100488000000000000000000000000000000000064
:100498000000000000000000000000000000000054
:1004A8000100010000000000000000000000000042
:1004B8000000000000000000000000000000000034
:1004C8000000000000000000000000000000000024
:1004D8000100010001000000000000000000000011
:1004E8000000000000000000000000000000000004
:1004F80000000000000000000000000000000000F4
:1005080001000100010001000000000000000000DF
:1005180000000000000000000000000000000000D3
:1005280000000000000000000000000000000000C3
:1005380001000100010001000100000000000000AE
:1005480000000000000000000000000000000000A3
:100558000000000000000000000000000000000093
:10056800010001000100010001000100000000007D
:100578000000000000000000000000000000000073
:100588000000000000000000000000000000000063
:10059800010001000100010001000100010000004C
:1005A8000000000000000000000000000000000043
:1005B8000000000000000000000000000000000033
:1005C800010001000100010001000100010001001B
:1005D8000000000000000000000000000000000013
:00000001FF
