:020000040000FA
:100000000C945C000C946E000C946E000C946E00CA
:100010000C946E000C946E000C946E000C946E00A8
:100020000C946E000C946E000C946E000C946E0098
:100030000C946E000C946E000C946E000C946E0088
:100040000C94FB010C946E000C946E000C946E00EA
:100050000C946E000C946E000C946E000C946E0068
:100060000C946E000C946E00000000002400270029
:100070002A0000000000250028002B0004040404CE
:100080000404040402020202020203030303030342
:10009000010204081020408001020408102001021F
:1000A00004081020000000080002010000030407FB
:1000B000000000000000000011241FBECFEFD8E0B8
:1000C000DEBFCDBF21E0A0E0B1E001C01D92A131B3
:1000D000B207E1F70E9445020C949A040C940000C8
:1000E00090E0FC01EC55FF4F2491FC01E057FF4FDD
:1000F0003491FC01E458FF4FE491EE23C9F0222330
:1001000039F0233001F1A8F4213019F1223029F11E
:10011000F0E0EE0FFF1FEE58FF4FA591B4918FB79F
:10012000F894EC91611126C030953E233C938FBF2B
:1001300008952730A9F02830C9F0243049F780917C
:1001400080008F7D03C0809180008F778093800036
:10015000DFCF84B58F7784BDDBCF84B58F7DFBCFB8
:100160008091B0008F778093B000D2CF8091B000A3
:100170008F7DF9CF3E2BDACFCF93DF9390E0FC0158
:10018000E057FF4F249184589F4FFC0184918823AE
:10019000D1F090E0880F991FFC01E859FF4FA5911D
:1001A000B491FC01EE58FF4FC591D49161110EC07E
:1001B0009FB7F8948C91E22FE0958E238C93288141
:1001C000E223E8839FBFDF91CF9108958FB7F89422
:1001D000EC91E22BEC938FBFF6CF3FB7F894809170
:1001E000050190910601A0910701B091080126B583
:1001F000A89B05C02F3F19F00196A11DB11D3FBF5F
:10020000BA2FA92F982F8827BC01CD01620F711D2D
:10021000811D911D42E0660F771F881F991F4A9527
:10022000D1F708958F929F92AF92BF92CF92DF92B3
:10023000EF92FF926B017C010E94ED004B015C018B
:10024000C114D104E104F104B9F00E94ED00681971
:1002500079098A099B09683E73408105910580F3FD
:1002600021E0C21AD108E108F10888EE880E83E087
:10027000981EA11CB11CE4CFFF90EF90DF90CF90AF
:10028000BF90AF909F908F9008958A30910508F0AD
:10029000B1C0FC01E25BFE4F0C9480045801740174
:1002A0008A01A401B601C801D601EC01EE01F401F6
:1002B00060E080E00E94700060E081E00E947000D9
:1002C00060E082E00E94700060E083E00E947000C5
:1002D00060E084E00E94700060E085E00E947000B1
:1002E00061E086E00C94700061E080E00E947000A4
:1002F00060E081E00E94700060E082E00E94700097
:1003000061E083E00E94700061E084E00E94700080
:1003100061E0E3CF60E080E00E94700060E081E097
:100320000E94700061E082E00E94700060E083E063
:100330000E94700060E084E00E94700061E085E04F
:100340000E94700060E0CDCF60E080E00E9470000D
:1003500060E081E00E94700060E082E00E94700036
:1003600060E083E00E94700061E0E5CF61E080E042
:100370000E94700060E081E00E94700060E082E016
:100380000E94700061E083E00E94700061E01FC085
:1003900060E080E00E94700061E081E00E947000F7
:1003A00060E082E00E94700060E0EDCF60E080E0FD
:1003B0000E94700061E081E00E94700060E082E0D5
:1003C0000E94700060E083E00E94700060E084E0C2
:1003D0000E94700060E0B3CF60E087CF60E080E013
:1003E0000E94700060E0E7CF60E080E00E94700053
:1003F00060E0D3CF08951F920F920FB60F92112491
:100400002F933F938F939F93AF93BF93809101015D
:1004100090910201A0910301B0910401309100017B
:1004200023E0230F2D3758F50196A11DB11D209310
:1004300000018093010190930201A0930301B09306
:1004400004018091050190910601A0910701B091EE
:1004500008010196A11DB11D80930501909306012D
:10046000A0930701B0930801BF91AF919F918F9125
:100470003F912F910F900FBE0F901F90189526E877
:10048000230F0296A11DB11DD2CF789484B582604E
:1004900084BD84B5816084BD85B5826085BD85B528
:1004A000816085BD80916E00816080936E001092A6
:1004B0008100809181008260809381008091810021
:1004C00081608093810080918000816080938000B2
:1004D0008091B10084608093B1008091B000816010
:1004E0008093B00080917A00846080937A0080913C
:1004F0007A00826080937A0080917A008160809394
:100500007A0080917A00806880937A001092C1000E
:1005100010920A0110920901C0910901D0910A01BB
:1005200061E0C830D1054CF48C2F0E94BC002196AC
:10053000D0930A01C0930901EFCF8CE00E94BC0068
:1005400061E08DE00E94BC0060E08EE00E94BC0093
:1005500061E08AE00E94BC008AE0282E312C92E300
:10056000892E912C20E0A22E20E0B22E80E48093F0
:100570007C0080917A00806480937A0080917A0078
:1005800086FDFCCF80917800C0917900DC2FC82FC8
:10059000D0931001C0930F012E010D2E000C6608A0
:1005A0007708C301B2010E94730320E030E040EA03
:1005B00050E40E94D70320E030E040E85AE30E9474
:1005C000D70320E030E048EC52E40E94D7030E94B9
:1005D0003B03CB01B1010E946C048C0170930E01AE
:1005E00060930D0190930C0180930B01CB010E944D
:1005F000450161E08CE00E94700060E08DE00E94A7
:10060000700064E670E080E090E00E941201C80192
:100610000E94450160E08CE00E94700061E08DE086
:100620000E94700064E670E080E090E00E94120199
:1006300002E310E06401CC1ADD0A0D2C000CEE0878
:10064000FF0861E08AE00E947000C701B6010E94C5
:10065000120160E08AE00E947000C301B2010E94B2
:1006600012010150110969F7A114B10409F47ECFF8
:100670000E9400007BCF0E9442036894B1110C9449
:10068000D10308950E94B60388F09F5798F0B92FC0
:100690009927B751B0F0E1F0660F771F881F991FB7
:1006A0001AF0BA95C9F714C0B13091F00E94D00386
:1006B000B1E008950C94D003672F782F8827B85F96
:1006C00039F0B93FCCF3869577956795B395D9F70F
:1006D0003EF490958095709561957F4F8F4F9F4F19
:1006E0000895E89409C097FB3EF490958095709525
:1006F00061957F4F8F4F9F4F9923A9F0F92F96E96E
:10070000BB279395F695879577956795B795F111E2
:10071000F8CFFAF4BB0F11F460FF1BC06F5F7F4F7F
:100720008F4F9F4F16C0882311F096E911C0772391
:1007300021F09EE8872F762F05C0662371F096E89A
:10074000862F70E060E02AF09A95660F771F881F69
:10075000DAF7880F9695879597F9089557FD905881
:10076000440F551F59F05F3F71F04795880F97FB75
:10077000991F61F09F3F79F087950895121613062F
:100780001406551FF2CF4695F1DF08C0161617065E
:100790001806991FF1CF8695710561050894089593
:1007A000E894BB2766277727CB0197F908950E9425
:1007B000EA030C945B040E944D0438F00E94540438
:1007C00020F0952311F00C9444040C944A04112455
:1007D0000C94D1030E94AE0370F3959FC1F3950F63
:1007E00050E0551F629FF001729FBB27F00DB11DB5
:1007F000639FAA27F00DB11DAA1F649F6627B00D45
:10080000A11D661F829F2227B00DA11D621F739F2D
:10081000B00DA11D621F839FA00D611D221F749F3B
:100820003327A00D611D231F849F600D211D822F82
:10083000762F6A2F11249F5750409AF0F1F08823A9
:100840004AF0EE0FFF1FBB1F661F771F881F9150D6
:100850005040A9F79E3F510580F00C9444040C943D
:10086000D1035F3FE4F3983ED4F38695779567957F
:10087000B795F795E7959F5FC1F7FE2B880F911D00
:100880009695879597F9089597F99F6780E870E0A6
:1008900060E008959FEF80EC089500240A941616F6
:1008A000170618060906089500240A94121613065E
:1008B000140605060895092E0394000C11F48823EC
:1008C00052F0BB0F40F4BF2B11F460FF04C06F5F08
:1008D0007F4F8F4F9F4F089597FB072E16F400947C
:1008E00007D077FD09D00E94860407FC05D03EF4AE
:1008F000909581959F4F0895709561957F4F0895CC
:10090000EE0FFF1F0590F491E02D0994AA1BBB1B6D
:1009100051E107C0AA1FBB1FA617B70710F0A61BFF
:10092000B70B881F991F5A95A9F780959095BC0120
:08093000CD010895F894FFCFFA
:107E0000112484B714BE81FFF0D085E080938100F7
:107E100082E08093C00088E18093C10086E0809377
:107E2000C20080E18093C4008EE0C9D0259A86E02C
:107E300020E33CEF91E0309385002093840096BBD3
:107E4000B09BFECF1D9AA8958150A9F7CC24DD24C4
:107E500088248394B5E0AB2EA1E19A2EF3E0BF2EE7
:107E6000A2D0813461F49FD0082FAFD0023811F036
:107E7000013811F484E001C083E08DD089C08234E0
:107E800011F484E103C0853419F485E0A6D080C0E4
:107E9000853579F488D0E82EFF2485D0082F10E0AE
:107EA000102F00270E291F29000F111F8ED06801E7
:107EB0006FC0863521F484E090D080E0DECF843638
:107EC00009F040C070D06FD0082F6DD080E0C81688
:107ED00080E7D80618F4F601B7BEE895C0E0D1E017
:107EE00062D089930C17E1F7F0E0CF16F0E7DF06D8
:107EF00018F0F601B7BEE89568D007B600FCFDCFD4
:107F0000A601A0E0B1E02C9130E011968C91119780
:107F100090E0982F8827822B932B1296FA010C0160
:107F200087BEE89511244E5F5F4FF1E0A038BF0790
:107F300051F7F601A7BEE89507B600FCFDCF97BE46
:107F4000E89526C08437B1F42ED02DD0F82E2BD052
:107F50003CD0F601EF2C8F010F5F1F4F84911BD097
:107F6000EA94F801C1F70894C11CD11CFA94CF0C13
:107F7000D11C0EC0853739F428D08EE10CD085E9AC
:107F80000AD08FE07ACF813511F488E018D01DD067
:107F900080E101D065CF982F8091C00085FFFCCF94
:107FA0009093C60008958091C00087FFFCCF809118
:107FB000C00084FD01C0A8958091C6000895E0E648
:107FC000F0E098E1908380830895EDDF803219F02E
:107FD00088E0F5DFFFCF84E1DECF1F93182FE3DFCA
:107FE0001150E9F7F2DF1F91089580E0E8DFEE27F6
:047FF000FF270994CA
:027FFE00040479
:00000001FF
