:100000000C94D9000C94F6000C94F6000C94F600B5
:100010000C94F6000C94F6000C94F6000C94F60088
:100020000C94F6000C94F6000C94F6000C94F60078
:100030000C94F6000C94F6000C94F6000C94F60068
:100040000C9460020C94F6000C94F6000C94F600EC
:100050000C94F6000C94F6000C94F6000C94F60048
:100060000C94F6000C94F60000407A10F35A00A0AD
:10007000724E18090010A5D4E80000E87648170071
:1000800000E40B54020000CA9A3B000000E1F505B1
:10009000000080969800000040420F000000A086FB
:1000A00001000000102700000000E803000000002D
:1000B0006400000000000A000000000001000000D1
:1000C00000002C76D888DC674F0823DFC1DFAE59EB
:1000D000E1B1B796E5E3E453C63AE651997696E87E
:1000E000E6C28426EB898C9B62ED407C6FFCEFBC02
:1000F0009C9F40F2BAA56FA5F490055A2AF75C932D
:100100006B6CF9676DC11BFCE0E40D47FEF520E662
:10011000B500D0ED902E0300943577050080841E45
:10012000080000204E0A000000C80C333333330FA0
:10013000986E12831141EF8D2114893BE65516CF3D
:10014000FEE6DB18D1844B381BF77C1D901DA4BB49
:10015000E424203284725E228100C9F124ECA1E5FE
:100160003D27000000080002010000030407000012
:1001700000000000000000000000250028002B0007
:1001800000000000240027002A00040404040404E2
:100190000404020202020202030303030303010236
:1001A0000408102040800102040810200102040805
:1001B000102011241FBECFEFD8E0DEBFCDBF21E05D
:1001C000A0E1B1E001C01D92A232B207E1F711E057
:1001D000A0E0B1E0ECE5F3E102C005900D92A031A2
:1001E000B107D9F70E94AA020C94AC090C94000044
:1001F00090E0FC01E256FE4F249186579E4FFC0191
:100200008491882399F090E0880F991FFC01E058B1
:10021000FE4FA591B491FC01EA58FE4F859194914F
:100220008FB7F894EC91E22BEC938FBF089590E098
:10023000FC01EE59FE4F2491FC01E256FE4F349131
:10024000FC01E657FE4FE491EE23C9F0222339F07A
:10025000233001F1A8F4213019F1223029F1F0E026
:10026000EE0FFF1FEA58FE4FA591B4918FB7F89497
:10027000EC91611126C030953E233C938FBF0895C9
:100280002730A9F02830C9F0243049F78091800048
:100290008F7D03C0809180008F7780938000DFCFB7
:1002A00084B58F7784BDDBCF84B58F7DFBCF809104
:1002B000B0008F778093B000D2CF8091B0008F7D57
:1002C000F9CF3E2BDACF3FB7F8948091150190918A
:1002D0001601A0911701B091180126B5A89B05C081
:1002E0002F3F19F00196A11DB11D3FBFBA2FA92FB5
:1002F000982F8827BC01CD01620F711D811D911DB2
:1003000042E0660F771F881F991F4A95D1F708951D
:100310008F929F92AF92BF92CF92DF92EF92FF9215
:100320004B015C010E9463016B017C010E9463012F
:100330006C197D098E099F09683E734081059105FE
:10034000A8F321E0821A9108A108B10888EEC80E2E
:1003500083E0D81EE11CF11C81149104A104B104B6
:1003600029F7FF90EF90DF90CF90BF90AF909F90D4
:100370008F9008958BB960E08CE00E94170160E0D7
:100380008BE00E94170161E08DE00E94170164E696
:1003900070E080E090E00E94880160E08DE00C94C5
:1003A0001701CF93DF93EC0188819981009711F0B9
:1003B0000E945608198218821D821C821B821A8292
:1003C000DF91CF910895FC0180819181009711F018
:1003D0000C94560808950F931F93CF93DF93EC016D
:1003E00088819981009759F02A813B812617370728
:1003F00030F081E0DF91CF911F910F9108958B0133
:100400006F5F7F4F0E94DF08009759F099838883C0
:100410001B830A832C813D81232B59F7FC01108219
:10042000E8CF80E0E7CFEF92FF920F931F93CF9337
:10043000DF936115710541F480E0DF91CF911F9149
:100440000F91FF90EF90089541155105B1F07B0198
:10045000EC010C811D81040F151FB8010E94EB01F6
:10046000882351F3288139818C819D81B701820FC6
:10047000931F0E94A5091D830C8381E0DECFEF92BC
:10048000FF920F931F93CF93DF93EC017B018A01BF
:10049000BA010E94EB0181110BC0CE010E94D10173
:1004A000CE01DF91CF911F910F91FF90EF900895B2
:1004B0001D830C83B701888199810E94A509F0CF23
:1004C0001F920F920FB60F9211242F933F938F9389
:1004D0009F93AF93BF938091110190911201A091CE
:1004E0001301B09114013091100123E0230F2D3737
:1004F00058F50196A11DB11D2093100180931101A3
:1005000090931201A0931301B093140180911501EF
:1005100090911601A0911701B09118010196A11DAB
:10052000B11D8093150190931601A0931701B0930C
:100530001801BF91AF919F918F913F912F910F9093
:100540000FBE0F901F90189526E8230F0296A11D4D
:10055000B11DD2CFCF93DF93CDB7DEB7AF970FB634
:10056000F894DEBF0FBECDBF789484B5826084BDA1
:1005700084B5816084BD85B5826085BD85B58160A7
:1005800085BD80916E00816080936E001092810025
:1005900080918100826080938100809181008160E0
:1005A00080938100809180008160809380008091A1
:1005B000B10084608093B1008091B000816080932D
:1005C000B00080917A00846080937A0080917A00F4
:1005D000826080937A0080917A00816080937A00B3
:1005E00080917A00806880937A001092C1008FEF2A
:1005F0008AB98CE00E94F8008BE00E94F8008DE040
:100600000E94F80083E4D82E9FEDC92E20E0E22E50
:1006100020E0F22ED0927C0080917A00806480935A
:100620007A0080917A0086FDFCCF809178006091FD
:100630007900762F682F072E000C880B990B0E94EB
:100640008A0620E030E040EA50E40E94C50620E03F
:1006500030E040E85AE30E94C50620E030E048EC74
:1006600052E40E94C5064B015C0180921A019092EF
:100670001B01A0921C01B0921D0188E30E94BA01E7
:100680006AE070E080E090E00E9488018CE00E94C7
:10069000BA016AE070E080E090E00E94880181E0A9
:1006A0000E94BA016AE070E080E090E00E94880158
:1006B00080E80E94BA016AE070E080E090E00E9469
:1006C000880119A618A61BA61AA61DA61CA646E0F8
:1006D00050E066E071E0CE0188960E943F021BA2C6
:1006E0001AA21DA21CA21FA21EA28E010F5F1F4FE5
:1006F00023E045E0C501B4010E943304009709F4EA
:1007000093C0FC0101900020E9F73197AF01481B2D
:10071000590BBC01CE0182960E943F021A821982B7
:100720001C821B821E821D8268A579A56115710538
:1007300031F04CA55DA5CE0101960E943F024EA16D
:100740005FA16AA17BA1CE0101960E9413028111D3
:1007500004C0CE0101960E94D101CEA61FA641E0A1
:1007600050E0BE01625D7F4FCE0101960E941302F0
:10077000811104C0CE0101960E94D10141E050E0F8
:100780006DE071E0CE0101960E941302811104C058
:10079000CE0101960E94D10169817A8161157105AE
:1007A00009F447C04D815E81CE0188960E943F02C8
:1007B000CE0101960E94E30110E000E08CA59DA50A
:1007C0000817190720F4E8A5F9A53097B9F5109294
:1007D0001901E9E1F1E020812223B1F1081719079D
:1007E00020F4E8A5F9A5309761F510921901E9E127
:1007F000F1E080818BB961E08CE00E94170160E03C
:100800008BE00E94170161E08DE00E94170164E611
:1008100070E080E090E00E94880160E08DE00E943E
:1008200017010F5F1F4FCACFCE0182960E94D101E0
:1008300075CFCE0188960E94D101BACFE00FF11F8B
:10084000CACFE00FF11FD5CFCE0182960E94E301FF
:10085000CE0188960E94E301E114F10409F4DACE96
:100860000E940000D7CEEF920F931F93CF93DF9398
:10087000E80134E047FD34E1042E000C550B57FF2E
:1008800003C0519541955109E32E022F242FAE014B
:100890000E945104CE01DF91CF911F910F91EF90F3
:1008A0000895A9E0B0E0E7E5F4E00C9489076A0157
:1008B000F22EB02E102FFBE3AF2EA01608F41BE390
:1008C0001F5F012F27E0AE014F5F5F4F0E94B00511
:1008D000BC018981982F9970913009F43FC09BE247
:1008E000E1FC04C09E2D9170E0FC3AC05E2D507179
:1008F000E82FE87083FF46C084E0911101C083E0D7
:10090000EF2DE81B8F1508F0E0E0D6018E2F20E2D6
:10091000552351F1992329F0D6019C93C6010196E4
:100920006C0196012D5F3F4FE2FE24C08EE4D6019C
:100930008C9391E411969C93119712968C93D90104
:100940008E2F90E281111BC0E20FF32FF11D108258
:100950008EEF9FEF2996ECE00C94A5079DE2C6CFA1
:1009600090E2C4CF2D9381508111FCCFCE0ED11CCB
:10097000E0E0D0CF8EE6D6018C9391E6DBCF9D935D
:100980008150E0CF482F447082FF3DC084E0911138
:1009900001C083E08F1510F4EF2DE81BD6018E2FD8
:1009A00020E2552309F1992329F0D6019C93C60131
:1009B00001966C0196012D5F3F4FE2FE1BC089E45A
:1009C000D6018C938EE411968C93119786E412963F
:1009D0008C93D9018E2F90E2882309F4B5CF9D9393
:1009E0008150FACF2D9381508111FCCFCE0ED11CB6
:1009F000E0E0D9CF89E6D6018C938EE611968C93F0
:100A0000119786E6E4CF9B0177FF02C030E020E03B
:100A1000A1E0B0E0911102C0B0E0A0E0F901319690
:100A2000AE0FBF1F8B2C912CBB2009F461C0540169
:100A3000EFEFAE1ABE0AAA0DBB1DFA161B0619F07F
:100A400014F04F2D4A1B511188C0E3FC59C07601A8
:100A5000A42FB0E2A1114FC0C40ED11C992309F4F8
:100A60005BC040E0D6011196F60190836D015523DD
:100A700009F448C0012F060F9A81582F507184FF46
:100A800003C0913309F4015010160CF047C009302F
:100A900008F008E0EEE2FE2E5B01A01AB108850125
:100AA0009194819491082F3F320729F4D601FC924A
:100AB000F60131966F016217730794F1021713075D
:100AC0007CF5DB01A21BB30BAA24A394B12CAC0EC2
:100AD000BD1EAA0DBB1D11968C9121503109D60166
:100AE000119628153905F4F0F60180836D01DBCFEE
:100AF000B12CA12CA0CFF701B1937F01A150AACFB7
:100B00009111B0CFD601942F50E302C05D93915064
:100B10009111FCCFC40ED11C40E0ACCF01E0BACFA4
:100B200080E3DBCF6217730731F4963388F4953393
:100B300011F4552369F0F6018083FD01842F90E2C2
:100B4000811108C0A40FB11D1C9290E080E002CF7B
:100B500081E3F1CF91938150F3CF911183CF8ACF6D
:100B6000283008F027E03327DA01990F311D87FD7F
:100B7000916000966105710539F432602E5F3D93F6
:100B800030E32A95E1F708959F3F30F080387105F2
:100B9000610509F03C5F3C5F3D93913008F080684F
:100BA000911DDF93CF931F930F93FF92EF92192F15
:100BB000987F9695E92F96959695E90FFF27EE5326
:100BC000FF4F99273327EE24FF24A701E701059063
:100BD0000894079428F4360FE71EF81E491F511D8C
:100BE000660F771F881F991F0694A1F70590079439
:100BF00028F4E70EF81E491F561FC11D770F881FE6
:100C0000991F661F0694A1F70590079428F4F80E23
:100C1000491F561FC71FD11D880F991F661F771FB9
:100C20000694A1F70590079420F4490F561FC71F9B
:100C3000D81F990F661F771F881F0694A9F7849104
:100C40001095177041F0D695C79557954795F7942D
:100C5000E7941A95C1F7E8E6F0E0689415901591CD
:100C600035916591959105907FE27395E118F10AB0
:100C7000430B560BC90BD009C0F7E10CF11E431F03
:100C8000561FC91FD01D7EF4703311F48A95E6CF2C
:100C9000E894015030F0080F0AF40027021708F416
:100CA000202F2395022F7A3328F079E37D932A951C
:100CB000E9F710C07D932A9589F606949795679574
:100CC000379517951794E118F10A430B560BC90B8A
:100CD000D00998F023957E9173957A3308F070E3EC
:100CE0007C932013B8F77E9170617D9330F08395EB
:100CF00071E37D9370E32A95E1F71124EF90FF9063
:100D00000F911F91CF91DF91992787FD90950895BD
:100D1000E89409C097FB3EF4909580957095619595
:100D20007F4F8F4F9F4F9923A9F0F92F96E9BB274B
:100D30009395F695879577956795B795F111F8CFC7
:100D4000FAF4BB0F11F460FF1BC06F5F7F4F8F4F32
:100D50009F4F16C0882311F096E911C0772321F028
:100D60009EE8872F762F05C0662371F096E8862FC0
:100D700070E060E02AF09A95660F771F881FDAF717
:100D8000880F9695879597F908950E94D8060C9438
:100D900049070E943B0738F00E94420720F0952344
:100DA00011F00C9432070C94380711240C947D0731
:100DB0000E945A0770F3959FC1F3950F50E0551F9D
:100DC000629FF001729FBB27F00DB11D639FAA27A0
:100DD000F00DB11DAA1F649F6627B00DA11D661FEF
:100DE000829F2227B00DA11D621F739FB00DA11D10
:100DF000621F839FA00D611D221F749F3327A00DCA
:100E0000611D231F849F600D211D822F762F6A2F65
:100E100011249F5750409AF0F1F088234AF0EE0FCA
:100E2000FF1FBB1F661F771F881F91505040A9F7F7
:100E30009E3F510580F00C9432070C947D075F3F74
:100E4000E4F3983ED4F3869577956795B795F79533
:100E5000E7959F5FC1F7FE2B880F911D96958795AB
:100E600097F9089597F99F6780E870E060E008952A
:100E70009FEF80EC089500240A94161617061806B2
:100E80000906089500240A9412161306140605068E
:100E90000895092E0394000C11F4882352F0BB0F1F
:100EA00040F4BF2B11F460FF04C06F5F7F4F8F4F82
:100EB0009F4F089557FD9058440F551F59F05F3FBD
:100EC00071F04795880F97FB991F61F09F3F79F06C
:100ED00087950895121613061406551FF2CF4695EE
:100EE000F1DF08C0161617061806991FF1CF869570
:100EF0007105610508940895E894BB276627772754
:100F0000CB0197F908952F923F924F925F926F9283
:100F10007F928F929F92AF92BF92CF92DF92EF9289
:100F2000FF920F931F93CF93DF93CDB7DEB7CA1B0A
:100F3000DB0B0FB6F894DEBF0FBECDBF09942A8835
:100F4000398848885F846E847D848C849B84AA84DD
:100F5000B984C884DF80EE80FD800C811B81AA816A
:100F6000B981CE0FD11D0FB6F894DEBF0FBECDBF35
:100F7000ED0108950F931F93CF93DF938230910576
:100F800010F482E090E0E0912001F091210130E046
:100F900020E0B0E0A0E0309799F42115310509F484
:100FA0004AC0281B390B24303105D8F58A819B8132
:100FB0006115710589F1FB0193838283FE0111C0E4
:100FC000408151810281138148175907E0F0481789
:100FD000590799F4109761F012960C931297139693
:100FE0001C933296CF01DF91CF911F910F910895FD
:100FF0000093200110932101F4CF2115310551F008
:101000004217530738F0A901DB019A01BD01DF0146
:10101000F801C1CFEF01F9CF909321018093200116
:10102000CDCFFE01E20FF31F81939193225031093E
:1010300039832883D7CF20911E0130911F01232BA4
:1010400041F4209102013091030130931F0120935C
:101050001E0120910001309101012115310541F45B
:101060002DB73EB74091040150910501241B350B6B
:10107000E0911E01F0911F01E217F307A0F42E1B6F
:101080003F0B2817390778F0AC014E5F5F4F2417EC
:10109000350748F04E0F5F1F50931F0140931E010C
:1010A000819391939FCFF0E0E0E09CCFCF93DF93CB
:1010B0000097E9F0FC01329713821282A09120017F
:1010C000B0912101ED0130E020E01097A1F42081E2
:1010D0003181820F931F20911E0130911F0128172B
:1010E000390709F061C0F0931F01E0931E01DF9101
:1010F000CF910895EA01CE17DF07E8F54A815B81B9
:101100009E0141155105B1F7E901FB83EA8349913D
:101110005991C40FD51FEC17FD0761F480819181AF
:101120000296840F951FE9019983888382819381B8
:101130009B838A83F0E0E0E012968D919C91139757
:101140000097B9F52D913C911197CD010296820F30
:10115000931F20911E0130911F012817390739F67E
:10116000309751F51092210110922001B0931F0188
:10117000A0931E01BCCFD383C28340815181840FD1
:10118000951FC817D90761F44E5F5F4F8881998119
:10119000480F591F518340838A819B8193838283A7
:1011A0002115310509F0B0CFF0932101E093200122
:1011B0009ECFFD01DC01C0CF13821282D7CFB0E0F9
:1011C000A0E0E5EEF8E00C9485078C01009751F45F
:1011D000CB010E94BA078C01C801CDB7DEB7E0E1B0
:1011E0000C94A107FC01E60FF71F9C012250310966
:1011F000E217F30708F49DC0D901CD91DC91119756
:10120000C617D70798F0C530D10530F3CE01049743
:101210008617970708F3C61BD70B2297C193D19364
:101220006D937C93CF010E945608D6CF5B01AC1A18
:10123000BD0A4C018C0E9D1EA0912001B091210190
:10124000512C412CF12CE12C109731F580911E018D
:1012500090911F018815990509F05CC04616570644
:1012600008F058C08091000190910101009741F46D
:101270008DB79EB74091040150910501841B950BD9
:10128000E817F90708F055C0F0931F01E0931E011D
:10129000F90171836083A0CF8D919C911197129673
:1012A0006C90129713967C901397A815B90559F571
:1012B0006C0142E0C40ED11CCA14DB0420F1AC0165
:1012C0004A195B09DA011296159780F062827382DF
:1012D00051834083D9016D937C93E114F10471F043
:1012E000D7011396FC93EE93129776CF22968C0F2C
:1012F0009D1FF90191838083F301EFCFF0932101CA
:10130000E093200169CF4816590608F42C017D01AD
:10131000D3019ACFCB010E94BA077C01009749F014
:10132000AE01B8010E949C09C8010E9456088701BD
:1013300053CF10E000E050CFFB01DC0102C0019070
:101340000D9241505040D8F70895FB01DC01019007
:0C1350000D920020E1F70895F894FFCF03
:10135C000000220180004E2E646F3A2000430000F2
:00000001FF
