:100000000C945C000C9479000C9479000C947900A9
:100010000C9479000C9479000C9479000C9479007C
:100020000C9479000C9479000C9479000C9479006C
:100030000C9479000C9479000C9479000C9479005C
:100040000C94C4010C9479000C9479000C94790000
:100050000C9479000C9479000C9479000C9479003C
:100060000C9479000C947900000000080002010053
:100070000003040700000000000000000000000072
:10008000250028002B0000000000240027002A0083
:10009000040404040404040402020202020203032E
:1000A0000303030301020408102040800102040836
:1000B000102001020408102011241FBECFEFD8E049
:1000C000DEBFCDBF11E0A0E0B1E0E6E6F5E002C0A2
:1000D00005900D92AE30B107D9F721E0AEE0B1E066
:1000E00001C01D92A731B207E1F70E940E020C94E5
:1000F000B1020C94000090E0FC01EC55FF4F2491FC
:1001000080579F4FFC018491882399F090E0880FDD
:10011000991FFC01EA57FF4FA591B491FC01E458E7
:10012000FF4F859194918FB7F894EC91E22BEC936B
:100130008FBF089590E0FC01E859FF4F2491FC0126
:10014000EC55FF4F3491FC01E057FF4FE491EE2353
:10015000C9F0222339F0233001F1A8F4213019F13C
:10016000223029F1F0E0EE0FFF1FE458FF4FA59178
:10017000B4918FB7F894EC91611126C030953E236D
:100180003C938FBF08952730A9F02830C9F0243060
:1001900049F7809180008F7D03C0809180008F7728
:1001A00080938000DFCF84B58F7784BDDBCF84B5AB
:1001B0008F7DFBCF8091B0008F778093B000D2CF3E
:1001C0008091B0008F7DF9CF3E2BDACF3FB7F89406
:1001D0008091130190911401A0911501B091160125
:1001E00026B5A89B05C02F3F19F00196A11DB11D92
:1001F0003FBFBA2FA92F982F8827BC01CD01620FCE
:10020000711D811D911D42E0660F771F881F991F88
:100210004A95D1F708958F929F92AF92BF92CF9255
:10022000DF92EF92FF920E94E6004B015C018AE0B0
:10023000C82ED12CE12CF12C0E94E6006819790916
:100240008A099B09683E734081059105A8F321E066
:10025000C21AD108E108F10888EE880E83E0981EE2
:10026000A11CB11CC114D104E104F10429F7FF90D1
:10027000EF90DF90CF90BF90AF909F908F900895B8
:10028000CF93DF93C82F807F85B985B190E0959596
:1002900087959595879585B961E081E10E949A00DF
:1002A00060E082E10E949A0061E083E10E949A008E
:1002B0000E940B0160E083E10E949A000E940B0102
:1002C00080E1C802E0011124C5B985B190E095959F
:1002D00087959595879585B961E081E10E949A009F
:1002E00060E082E10E949A0061E083E10E949A004E
:1002F0000E940B0160E083E10E949A00DF91CF91A0
:100300000C940B01CF93DF93C82F807F85B985B103
:1003100090E0959587959595879585B960E081E101
:100320000E949A0060E082E10E949A0061E083E10D
:100330000E949A000E940B0160E083E10E949A00F3
:100340000E940B0180E1C802E0011124C5B985B10A
:1003500090E0959587959595879585B960E081E1C1
:100360000E949A0060E082E10E949A0061E083E1CD
:100370000E949A000E940B0160E083E10E949A00B3
:10038000DF91CF910C940B011F920F920FB60F9239
:1003900011242F933F938F939F93AF93BF9380919B
:1003A0000F0190911001A0911101B09112013091B3
:1003B0000E0123E0230F2D3758F50196A11DB11D25
:1003C00020930E0180930F0190931001A0931101CF
:1003D000B09312018091130190911401A091150125
:1003E000B09116010196A11DB11D80931301909348
:1003F0001401A0931501B0931601BF91AF919F9185
:100400008F913F912F910F900FBE0F901F901895D5
:1004100026E8230F0296A11DB11DD2CFCF93DF9303
:10042000CDB7DEB72E970FB6F894DEBF0FBECDBFA7
:10043000789484B5826084BD84B5816084BD85B5BF
:10044000826085BD85B5816085BD80916E008160CB
:1004500080936E0010928100809181008260809371
:100460008100809181008160809381008091800073
:100470008160809380008091B10084608093B1009E
:100480008091B00081608093B00080917A00846098
:1004900080937A0080917A00826080937A008091C4
:1004A0007A00816080937A0080917A0080688093DE
:1004B0007A001092C10081E10E947B0082E10E94DB
:1004C0007B0083E10E947B0082E00E94820188E23F
:1004D0000E9482018EE00E94820181E00E948201DE
:1004E00080E80E9482018EE0E0E0F1E0DE011196FA
:1004F00001900D928A95E1F788E40E94400185E61B
:100500000E9440018CE60E9440018CE60E9440015E
:100510008FE60E94400180E20E94400187E70E942E
:1005200040018FE60E94400182E70E9440018CE674
:100530000E94400184E60E94400180EC0E948201FA
:1005400010E0E1E0F0E0EC0FFD1FE10FF11D17FD01
:10055000FA958081882321F00E9440011F5FF1CF2E
:06056000FFCFF894FFCF6D
:0E056600476F6F64206D6F726E696E672100C3
:00000001FF
