:100000000C9458000C9480000C9480000C94800098
:100010000C9480000C9480000C9480000C94800060
:100020000C9480000C9480000C9480000C94800050
:100030000C9480000C9480000C9480000C94800040
:100040000C946E030C9480000C943C030C941603E7
:100050000C9480000C9480000C9480000C94800020
:100060000C94B8030C9480000000000025002800C8
:100070002B00040404040404040402020202020229
:10008000030303030303010204081020408001025C
:1000900004081020010204081020000000080002DB
:1000A0000100000304070000000000000000D70466
:1000B00011241FBECFEFD8E0DEBFCDBF11E0A0E01E
:1000C000B1E0E2EAFDE002C005900D92A83BB10765
:1000D000D9F723E0A8EBB1E001C01D92AE31B20721
:1000E000E1F710E0C8E5D0E004C02197FE010E94CE
:1000F000C906C735D107C9F70E9410050C94CF0671
:100100000C94000090E0FC01E656FF4F2491FC01A6
:10011000EA57FF4F3491FC01EE58FF4FE491EE2374
:10012000B1F0222339F02330E9F090F4213001F1CD
:10013000223011F1F0E0EE0FFF1FE859FF4FA591BB
:10014000B4918FB7F894EC913E2B3C938FBF0895F8
:100150002730A9F02830C9F0243061F78091800061
:100160008F7D03C0809180008F7780938000E2CFE5
:1001700084B58F7784BDDECF84B58F7DFBCF809132
:10018000B0008F778093B000D5CF8091B0008F7D85
:10019000F9CF08950895AF92BF92CF92DF92EF9278
:1001A000FF920F931F93CF93DF936C017B018B0121
:1001B000040F151FEB015E01AE18BF08C017D10771
:1001C00059F06991D601ED91FC910190F081E02DFB
:1001D000C6010995892B79F7C501DF91CF911F9150
:1001E0000F91FF90EF90DF90CF90BF90AF90089568
:1001F000FC01538D448D252F30E0842F90E0821B2D
:10020000930B541710F0CF96089501970895FC01B1
:10021000918D828D981761F0A28DAE0FBF2FB11D09
:100220005D968C91928D9F5F9F73928F90E0089561
:100230008FEF9FEF0895FC01918D828D981731F01B
:10024000828DE80FF11D858D90E008958FEF9FEF6F
:100250000895FC01918D228D892F90E0805C9F4F45
:10026000821B91098F739927089585E792E00E9478
:10027000290121E0892B09F420E0822F089580E0F4
:1002800090E0892B29F00E94350181110C94000027
:100290000895FC01A48DA80FB92FB11DA35ABF4F1B
:1002A0002C91848D90E001968F739927848FA68975
:1002B000B7892C93A089B1898C91837080648C93C9
:1002C000938D848D981306C00288F389E02D808178
:1002D0008F7D80830895EF92FF920F931F93CF93AA
:1002E000DF93EC0181E0888F9B8D8C8D98131AC071
:1002F000E889F989808185FF15C09FB7F894EE8958
:10030000FF896083E889F9898081837080648083B4
:100310009FBF81E090E0DF91CF911F910F91FF90FF
:10032000EF900895F62E0B8D10E00F5F1F4F0F73A7
:100330001127E02E8C8D8E110CC00FB607FCFACF62
:10034000E889F989808185FFF5CFCE010E944901B6
:10035000F1CFEB8DEC0FFD2FF11DE35AFF4FF08233
:100360009FB7F8940B8FEA89FB8980818062CFCF99
:10037000CF93DF93EC01888D8823B9F0AA89BB89DC
:10038000E889F9898C9185FD03C0808186FD0DC0C7
:100390000FB607FCF7CF8C9185FFF2CF808185FFE8
:1003A000EDCFCE010E944901E9CFDF91CF910895B1
:1003B0003FB7F8948091200290912102A0912202EF
:1003C000B091230226B5A89B05C02F3F19F00196D6
:1003D000A11DB11D3FBFBA2FA92F982F8827BC019F
:1003E000CD01620F711D811D911D42E0660F771FC7
:1003F000881F991F4A95D1F7089585ED8093BC0019
:100400008091BC0084FDFCCF109250020895209191
:10041000F801260F3327331F21323105ECF42091E8
:100420005002FC0190E080E0243069F082E0089501
:10043000A091F8012191AC0148525E4FA40FB52F55
:10044000B11D2C930196861798F38091F801680FDF
:100450006093F80180E0089581E008950895E091A7
:10046000290280912802E81730F4F0E0E854FE4FAA
:10047000808190E008958FEF9FEF08959091290279
:10048000809128022FEF3FEF981748F4E92FF0E012
:10049000E854FE4F208130E09F5F90932902C9010C
:1004A00008958091280290912902891B990B089543
:1004B000CF92DF92EF92FF920F931F93CF93DF9330
:1004C0007C01CB018A0120915102222389F0EB01AA
:1004D0006B01C40ED51ECC15DD0569F06991D701FD
:1004E000ED91FC910190F081E02DC7010995F3CFCA
:1004F000642F0E940702C801DF91CF911F910F91D5
:10050000FF90EF90DF90CF900895CF93DF931F92ED
:10051000CDB7DEB76983209151022223F9F02091F3
:100520007402203258F021E030E0FC013383228352
:1005300090E080E00F90DF91CF910895809152027A
:10054000E82FF0E0ED5AFD4F998190838F5F809303
:1005500052028093740281E090E0ECCF61E0CE0122
:1005600001960E940702F7CF90E080E00895FC0119
:1005700001900020E9F73197AF01481B590BBC01EE
:1005800085E792E00C94CB008F929F92AF92BF923E
:100590000F931F93CF93DF93CDB7DEB7A1970FB61D
:1005A000F894DEBF0FBECDBF19A2423008F44AE076
:1005B0008E010F5D1F4F842E912CB12CA12CA50113
:1005C00094010E94A706E62FB901CA01EA30F4F4AB
:1005D000E05DD801EE938D01232B242B252B79F799
:1005E00090E080E0109719F0CD010E94B702A1962B
:1005F0000FB6F894DEBF0FBECDBFDF91CF911F9134
:100600000F91BF90AF909F908F900895E95CE1CFDC
:10061000CF93DF930E94B702EC0184E291E00E9445
:10062000B7028C0F9D1FDF91CF9108951F920F92FB
:100630000FB60F9211242F933F934F935F936F93B5
:100640007F938F939F93AF93BF93EF93FF9385E730
:1006500092E00E944901FF91EF91BF91AF919F916C
:100660008F917F916F915F914F913F912F910F905B
:100670000FBE0F901F9018951F920F920FB60F92FA
:1006800011242F938F939F93EF93FF93E091850213
:10069000F09186028081E0918B02F0918C0282FDC4
:1006A0001BC0908180918E028F5F8F7320918F028B
:1006B000821741F0E0918E02F0E0EB58FD4F958FEC
:1006C00080938E02FF91EF919F918F912F910F90C8
:1006D0000FBE0F901F9018958081F4CF1F920F923C
:1006E0000FB60F9211242F933F938F939F93AF9345
:1006F000BF9380911C0290911D02A0911E02B091A7
:100700001F0230911B0223E0230F2D3758F501966D
:10071000A11DB11D20931B0280931C0290931D020A
:10072000A0931E02B0931F0280912002909121029B
:10073000A0912202B09123020196A11DB11D8093C8
:10074000200290932102A0932202B0932302BF9132
:10075000AF919F918F913F912F910F900FBE0F906E
:100760001F90189526E8230F0296A11DB11DD2CF28
:100770001F920F920FB60F9211242F933F934F9316
:100780005F936F937F938F939F93AF93BF93EF93F9
:10079000FF938091B900887F803609F44AC0F0F554
:1007A000883209F4A7C018F5803109F49BC0B8F469
:1007B000882309F4F9C0883009F494C0FF91EF91BF
:1007C000BF91AF919F918F917F916F915F914F9169
:1007D0003F912F910F900FBE0F901F901895883169
:1007E00009F488C0803251F780934E0214C08034DF
:1007F00009F49DC040F48033B9F38833F9F680934F
:100800004E0285ECB0C0803509F485C0883509F406
:1008100096C0883499F60E94FD01D0CF883909F43A
:100820008CC038F5883729F050F4883611F08037BD
:1008300029F683E08093500210921A0257C088383C
:1008400009F47BC0803919F0803809F0B7CF809166
:100850001A02803208F071C0E0911A0281E08E0F16
:1008600080931A028091BB00F0E0E650FE4F808337
:100870003DC0803B39F0E0F4803A09F479C0883A11
:1008800009F09CCF84E0809350021092F9011092FD
:10089000F801E0912602F091270209958091F80174
:1008A00081110FC081E08093F8011092D80109C036
:1008B000803C09F4A6CF883C09F4A3CF883B09F01B
:1008C0007DCFE091F90181E08E0F8093F901F0E096
:1008D000E852FE4F80818093BB009091F901809196
:1008E000F80129C080912B028093BB0085EC809396
:1008F000BC0064CF90914D0280914C02981758F53E
:10090000E0914D0281E08E0F80934D02F0E0E45DB6
:10091000FD4F8081E9CFE0914D0281E08E0F809301
:100920004D028091BB00F0E0E45DFD4F808390912B
:100930004D0280914C029817C8F285E8D8CFE0911B
:100940004D0281E08E0F80934D028091BB00F0E05C
:10095000E45DFD4F808380914F0281115CCF81E087
:1009600080932A0284EA8093BC001092500226CF22
:1009700085EC8093BC001092500280911A02803264
:1009800030F4E0911A02F0E0E650FE4F10826091E0
:100990001A0270E0E0912402F09125028AEF91E0C2
:1009A000099510921A020ACF10924E0234CFE5E751
:1009B000F2E01382128288EE93E0A0E0B0E084833C
:1009C0009583A683B78324E031E03183208325EC2F
:1009D00030E03587248724EC30E03787268720EC09
:1009E00030E0318B208B21EC30E0338B228B22ECFA
:1009F00030E0358B248B26EC30E0378B268B118E44
:100A0000128E138E148EE2E1F3E01382128284833D
:100A10009583A683B78386E191E0918380830895CF
:100A2000789484B5826084BD84B5816084BD85B5C9
:100A3000826085BD85B5816085BD80916E008160D5
:100A400080936E001092810080918100826080937B
:100A5000810080918100816080938100809180007D
:100A60008160809380008091B10084608093B100A8
:100A70008091B00081608093B00080917A008460A2
:100A800080937A0080917A00826080937A008091CE
:100A90007A00816080937A0080917A0080688093E8
:100AA0007A001092C100109229021092280210922E
:100AB0005202109274021092500281E080934F0211
:100AC00010922A0282E10E94820083E10E94820049
:100AD0008091B9008E7F8093B9008091B9008D7F9D
:100AE0008093B90088E48093B80085E48093BC00CB
:100AF00089EC90E090932702809326028AEC90E0A4
:100B00009093250280932402E0918502F091860261
:100B100082E08083E0918102F09182021082E09174
:100B20008302F09184028FEC808310928D02E09119
:100B30008902F0918A0286E08083E0918702F09139
:100B40008802808180618083E0918702F091880231
:100B5000808188608083E0918702F09188028081A3
:100B600080688083E0918702F091880280818F7D88
:100B7000808387E291E00E940803BB24B39422E0C3
:100B8000A22E99249A9435EE832E45EC342EC0E0A3
:100B9000D0E084E391E00E940803C12CD12C7601BF
:100BA000C39410E000E05C2CB0925102C09273023A
:100BB0001092520210927402809150028111FCCF67
:100BC000A0925002B0924F0290924E0210924D02AB
:100BD00010924C0210922B0290912B02852D880FBF
:100BE000892B80932B0280912A02813009F08EC0DC
:100BF00010922A0280912B028093BB008091BC004E
:100C000083FDF8CF3092BC00809150028230E1F336
:100C100080914E028F3F09F47CC080914E02803259
:100C200009F479C080914E02803309F476C084E0E3
:100C300010925202109274021092510281116FC0F0
:100C400080E491E00E94B7022FE0251520F08FE5A7
:100C500091E00E94B70240E1C701B6010E94C402C0
:100C600081E691E00E9408030F5F1F4F2FEFC21A29
:100C7000D20AE20AF20A8FE7C816D104E104F104AD
:100C800009F091CF81E891E00115110569F087E93C
:100C900091E00E94B702B801110F880B990B4AE04E
:100CA0000E94C4028BE991E00E9408030E94D801CF
:100CB0002B013C0188E8C82E83E1D82EE12CF12CD1
:100CC0000E94D8016419750986099709683E734026
:100CD00081059105A8F321E0C21AD108E108F108C5
:100CE00088EE480E83E0581E611C711CC114D104AB
:100CF000E104F10429F7209709F44BCF0E94350154
:100D0000882309F446CF0E94000043CF8092BC00A4
:100D10007BCF80E08DCF82E08BCF83E089CF8430A2
:100D200009F0A4CF85E691E00E94B7028FE0851517
:100D300020F08FE591E00E94B70240E1C701B601C3
:100D40000E94C40284E291E00E94B7028FCFA1E228
:100D50001A2EAA1BBB1BFD010DC0AA1FBB1FEE1F35
:100D6000FF1FA217B307E407F50720F0A21BB30B80
:100D7000E40BF50B661F771F881F991F1A9469F7FC
:100D800060957095809590959B01AC01BD01CF0158
:100D90000895EE0FFF1F0590F491E02D0994F8944B
:020DA000FFCF83
:100DA200000000006B01CB00F800B8012901070127
:100DB2001B010000000085025802B4022E025102FB
:100DC2003E022F020D0A000A493243205363616E2C
:100DD2006E6572005363616E6E696E672E2E2E0011
:100DE2004932432064657669636520666F756E6477
:100DF20020617420616464726573732030780030FE
:100E02000020202100556E6B6E6F776E2065727226
:100E12006F7220617420616464726573732030782C
:100E2200004E6F2049324320646576696365732002
:100E3200666F756E640A00436F20002074686965EE
:100E4200742062692064756F63206B6574206E6F15
:080E520069204932430A000047
:00000001FF
